{
  "contractName": "ClaimRegistry",
  "abi": [
    {
      "inputs": [],
      "stateMutability": "nonpayable",
      "type": "constructor"
    },
    {
      "anonymous": false,
      "inputs": [
        {
          "indexed": true,
          "internalType": "uint256",
          "name": "claimId",
          "type": "uint256"
        },
        {
          "indexed": false,
          "internalType": "uint256",
          "name": "blockNumber",
          "type": "uint256"
        }
      ],
      "name": "ClaimFinalized",
      "type": "event"
    },
    {
      "anonymous": false,
      "inputs": [
        {
          "indexed": true,
          "internalType": "uint256",
          "name": "claimId",
          "type": "uint256"
        },
        {
          "indexed": true,
          "internalType": "bytes32",
          "name": "externalKey",
          "type": "bytes32"
        },
        {
          "indexed": false,
          "internalType": "uint256",
          "name": "blockNumber",
          "type": "uint256"
        }
      ],
      "name": "ClaimOpened",
      "type": "event"
    },
    {
      "anonymous": false,
      "inputs": [
        {
          "indexed": true,
          "internalType": "uint256",
          "name": "claimId",
          "type": "uint256"
        },
        {
          "indexed": false,
          "internalType": "uint256",
          "name": "posteriorPPH",
          "type": "uint256"
        },
        {
          "indexed": false,
          "internalType": "uint256",
          "name": "posteriorPPR",
          "type": "uint256"
        },
        {
          "indexed": false,
          "internalType": "uint256",
          "name": "blockNumber",
          "type": "uint256"
        }
      ],
      "name": "ClaimPosteriorUpdated",
      "type": "event"
    },
    {
      "anonymous": false,
      "inputs": [
        {
          "indexed": true,
          "internalType": "address",
          "name": "previousController",
          "type": "address"
        },
        {
          "indexed": true,
          "internalType": "address",
          "name": "newController",
          "type": "address"
        }
      ],
      "name": "OracleControllerUpdated",
      "type": "event"
    },
    {
      "inputs": [],
      "name": "SCALE",
      "outputs": [
        {
          "internalType": "uint256",
          "name": "",
          "type": "uint256"
        }
      ],
      "stateMutability": "view",
      "type": "function",
      "constant": true
    },
    {
      "inputs": [
        {
          "internalType": "uint256",
          "name": "",
          "type": "uint256"
        }
      ],
      "name": "claims",
      "outputs": [
        {
          "internalType": "uint256",
          "name": "id",
          "type": "uint256"
        },
        {
          "internalType": "bytes32",
          "name": "externalKey",
          "type": "bytes32"
        },
        {
          "internalType": "enum ClaimRegistry.ClaimState",
          "name": "state",
          "type": "uint8"
        },
        {
          "internalType": "uint256",
          "name": "posteriorPPH",
          "type": "uint256"
        },
        {
          "internalType": "uint256",
          "name": "posteriorPPR",
          "type": "uint256"
        },
        {
          "internalType": "uint256",
          "name": "lastUpdatedBlock",
          "type": "uint256"
        }
      ],
      "stateMutability": "view",
      "type": "function",
      "constant": true
    },
    {
      "inputs": [
        {
          "internalType": "bytes32",
          "name": "",
          "type": "bytes32"
        }
      ],
      "name": "externalKeyToClaimId",
      "outputs": [
        {
          "internalType": "uint256",
          "name": "",
          "type": "uint256"
        }
      ],
      "stateMutability": "view",
      "type": "function",
      "constant": true
    },
    {
      "inputs": [],
      "name": "nextClaimId",
      "outputs": [
        {
          "internalType": "uint256",
          "name": "",
          "type": "uint256"
        }
      ],
      "stateMutability": "view",
      "type": "function",
      "constant": true
    },
    {
      "inputs": [],
      "name": "oracleController",
      "outputs": [
        {
          "internalType": "address",
          "name": "",
          "type": "address"
        }
      ],
      "stateMutability": "view",
      "type": "function",
      "constant": true
    },
    {
      "inputs": [],
      "name": "owner",
      "outputs": [
        {
          "internalType": "address",
          "name": "",
          "type": "address"
        }
      ],
      "stateMutability": "view",
      "type": "function",
      "constant": true
    },
    {
      "inputs": [
        {
          "internalType": "address",
          "name": "newController",
          "type": "address"
        }
      ],
      "name": "setOracleController",
      "outputs": [],
      "stateMutability": "nonpayable",
      "type": "function"
    },
    {
      "inputs": [
        {
          "internalType": "bytes32",
          "name": "externalKey",
          "type": "bytes32"
        }
      ],
      "name": "openClaim",
      "outputs": [
        {
          "internalType": "uint256",
          "name": "claimId",
          "type": "uint256"
        }
      ],
      "stateMutability": "nonpayable",
      "type": "function"
    },
    {
      "inputs": [
        {
          "internalType": "uint256",
          "name": "claimId",
          "type": "uint256"
        },
        {
          "internalType": "uint256",
          "name": "posteriorPPH",
          "type": "uint256"
        },
        {
          "internalType": "uint256",
          "name": "posteriorPPR",
          "type": "uint256"
        }
      ],
      "name": "updatePosterior",
      "outputs": [],
      "stateMutability": "nonpayable",
      "type": "function"
    },
    {
      "inputs": [
        {
          "internalType": "uint256",
          "name": "claimId",
          "type": "uint256"
        }
      ],
      "name": "finalizeClaim",
      "outputs": [],
      "stateMutability": "nonpayable",
      "type": "function"
    },
    {
      "inputs": [
        {
          "internalType": "uint256",
          "name": "claimId",
          "type": "uint256"
        }
      ],
      "name": "getClaimState",
      "outputs": [
        {
          "internalType": "enum ClaimRegistry.ClaimState",
          "name": "",
          "type": "uint8"
        }
      ],
      "stateMutability": "view",
      "type": "function",
      "constant": true
    },
    {
      "inputs": [
        {
          "internalType": "uint256",
          "name": "claimId",
          "type": "uint256"
        }
      ],
      "name": "getClaim",
      "outputs": [
        {
          "internalType": "uint256",
          "name": "id",
          "type": "uint256"
        },
        {
          "internalType": "bytes32",
          "name": "externalKey",
          "type": "bytes32"
        },
        {
          "internalType": "enum ClaimRegistry.ClaimState",
          "name": "state",
          "type": "uint8"
        },
        {
          "internalType": "uint256",
          "name": "posteriorPPH",
          "type": "uint256"
        },
        {
          "internalType": "uint256",
          "name": "posteriorPPR",
          "type": "uint256"
        },
        {
          "internalType": "uint256",
          "name": "lastUpdatedBlock",
          "type": "uint256"
        }
      ],
      "stateMutability": "view",
      "type": "function",
      "constant": true
    },
    {
      "inputs": [
        {
          "internalType": "bytes32",
          "name": "externalKey",
          "type": "bytes32"
        }
      ],
      "name": "resolveKey",
      "outputs": [
        {
          "internalType": "uint256",
          "name": "claimId",
          "type": "uint256"
        },
        {
          "internalType": "bool",
          "name": "found",
          "type": "bool"
        }
      ],
      "stateMutability": "view",
      "type": "function",
      "constant": true
    }
  ],
  "bytecode": "0x6080806040523461002857600080546001600160a01b03191633179055610866908161002e8239f35b600080fdfe608060408181526004918236101561001657600080fd5b600092833560e01c91826309b4c835146106f857508163101accbf146106ad57816326a7512d146106845781635aef2447146103825781637a971114146105d85781638a84bfd01461041d5781638da5cb5b146103f5578163a0021cf1146103d6578163a888c2cd14610382578163c69578451461020f578163c703a61514610100578163cf469cc6146100d4575063eced5526146100b457600080fd5b346100d057816003193601126100d05760209051620f42408152f35b5080fd5b9050346100fc5760203660031901126100fc5760209282913581526003845220549051908152f35b8280fd5b919050346100fc5760203660031901126100fc576001600160a01b0382358181169391929084900361020b578285541633036101bd57831561017a575050816001549182167f2791b557950c273b185101e967310c6ee1ae44976d46273c4b4140f33df3517c8580a36001600160a01b0319161760015580f35b906020606492519162461bcd60e51b8352820152601b60248201527f436c61696d52656769737472793a207a65726f206164647265737300000000006044820152fd5b906020608492519162461bcd60e51b8352820152602260248201527f436c61696d52656769737472793a2063616c6c6572206973206e6f74206f776e60448201526132b960f11b6064820152fd5b8480fd5b8383346100d05760603660031901126100d0578235906024359060443561024160018060a01b03600154163314610782565b620f424080841161032d5781116102d857838552600260205281852060ff60028201541660038110156102c557916060939181896102a360017f1a0ab65dedd745bfe6d48cc0733939e73653226dd957690367de76db1f9f96399997146107e4565b856003840155820155600543910155815192835260208301524390820152a280f35b634e487b7160e01b875260218852602487fd5b815162461bcd60e51b8152602081880152602960248201527f436c61696d52656769737472793a20706f73746572696f725050522065786365604482015268656473205343414c4560b81b6064820152608490fd5b825162461bcd60e51b8152602081890152602960248201527f436c61696d52656769737472793a20706f73746572696f725050482065786365604482015268656473205343414c4560b81b6064820152608490fd5b8284346103d35760203660031901126103d357816103cf91843581526002602052209182549260018101549460ff6002830154166005600384015492840154930154935196879687610751565b0390f35b80fd5b5050346100d057816003193601126100d0576020906005549051908152f35b5050346100d057816003193601126100d057905490516001600160a01b039091168152602090f35b8383346100d057602092836003193601126100fc5780359061044a60018060a01b03600154163314610782565b81845280855260ff838520541661057f5760055493600019851461056d576001850160055583519160c0830183811067ffffffffffffffff82111761055a57855285835286830192848452858101936001855260608201848152608083019085825260a08401924384528a875260028c5289872094518555516001850155600284019651966003881015610547579260019694926005928b979560ff199a60ff8c835416911617905551600385015551848401555191015585825260038952878383205588522091825416179055827f6c23554ddfcc40c6cb32199d53ccc8376f32b5265bb0453aa7c06d0702a86168858451438152a351908152f35b634e487b7160e01b875260218652602487fd5b634e487b7160e01b835260418252602483fd5b6011602492634e487b7160e01b835252fd5b825162461bcd60e51b8152908101859052602d60248201527f436c61696d52656769737472793a2065787465726e616c4b657920616c72656160448201526c191e481c9959da5cdd195c9959609a1b6064820152608490fd5b919050346100fc5760203660031901126100fc5781359161060460018060a01b03600154163314610782565b828452600260205281842090600282019081549060ff821690600382101561067157509160026020949261065c60017f45ef7eeea48bd09d13fd640d9df877b7def59bcd3c86d1d0d05e1d08ff63d3179896146107e4565b60ff191617905560054391015551438152a280f35b634e487b7160e01b885260219052602487fd5b5050346100d057816003193601126100d05760015490516001600160a01b039091168152602090f35b839150346100d05760203660031901126100d057803582526020528160ff818320541691826000146106f05760036020522054905b825191825215156020820152f35b9050906106e2565b9291503461072a57602036600319011261072a5760ff60026107289360209686943581528288522001541661072e565bf35b8380fd5b90600382101561073b5752565b634e487b7160e01b600052602160045260246000fd5b926107749060a095929897969360c086019986526020860152604085019061072e565b606083015260808201520152565b1561078957565b60405162461bcd60e51b815260206004820152602d60248201527f436c61696d52656769737472793a2063616c6c6572206973206e6f74204f726160448201526c31b632a1b7b73a3937b63632b960991b6064820152608490fd5b156107eb57565b60405162461bcd60e51b815260206004820152601d60248201527f436c61696d52656769737472793a20636c61696d206e6f74206f70656e0000006044820152606490fdfea2646970667358221220536bc85412ade82e05af962aa08910501930fa6ae2384d994fb99475ea68412464736f6c63430008110033",
  "immutableReferences": {},
  "source": "// SPDX-License-Identifier: MIT\npragma solidity ^0.8.17;\n\n/// @title  ClaimRegistry\n/// @notice Manages the lifecycle of LUNA claims and stores the latest\n///         committed posterior for each claim.\n///\n/// @dev    Paper-aligned design invariants (Section IV-A):\n///\n///         1. Three-state machine: None -> Open -> Finalized.\n///            The Finalized state is absorbing; updatePosterior() and\n///            finalizeClaim() both revert if the claim is not Open.\n///\n///         2. Only OracleController may transition claim state or write\n///            posteriors.  Applications open and finalize claims by\n///            calling the corresponding OracleController functions,\n///            which in turn call this registry.  This keeps a single\n///            authorised entry point for all claim mutations and matches\n///            the paper's workflow (Section III-E).\n///\n///         3. Every state transition and posterior update records\n///            block.number.  The oracle also records the CPTStore block\n///            height at BN reconstruction time; together these two\n///            values allow auditors to detect parameter-submission races.\n///\n///         4. posteriorPPH and posteriorPPR are range-checked\n///            independently against SCALE.  They are NOT required to\n///            sum to SCALE because PPH and PPR are marginally independent\n///            root nodes; mutual exclusivity of claim types\n///            is enforced at the application layer, not in the BN.\n///\n///         5. A reverse mapping externalKey -> claimId allows the oracle\n///            to resolve visit-metadata keys to on-chain identifiers in\n///            O(1) without scanning event logs.  A duplicate-key guard\n///            prevents two claims from being opened for the same visit.\n\ncontract ClaimRegistry {\n\n    // ----------------------------------------------------------------\n    // Constants\n    // ----------------------------------------------------------------\n\n    /// @notice Scale factor shared across LUNA contracts.\n    ///         All posteriors p in [0,1] are stored as round(p * SCALE).\n    uint256 public constant SCALE = 1_000_000;\n\n    // ----------------------------------------------------------------\n    // Roles\n    // ----------------------------------------------------------------\n\n    /// @notice Deployer; permitted only to bind the OracleController.\n    address public owner;\n\n    /// @notice The single authorised writer for all claim mutations.\n    ///         Set once after deployment via setOracleController().\n    address public oracleController;\n\n    // ----------------------------------------------------------------\n    // Claim lifecycle\n    // ----------------------------------------------------------------\n\n    /// @notice Claim lifecycle states.\n    ///         None      – claim does not exist (mapping default).\n    ///         Open      – accepting posterior updates.\n    ///         Finalized – absorbing; no further writes accepted.\n    enum ClaimState { None, Open, Finalized }\n\n    /// @notice Full claim record.\n    /// @param  id                Internal monotonic identifier.\n    /// @param  externalKey       keccak256 of visit metadata; unique per claim.\n    /// @param  state             Current lifecycle state.\n    /// @param  posteriorPPH      Latest scaled P(PPH=true | evidence).\n    /// @param  posteriorPPR      Latest scaled P(PPR=true | evidence).\n    /// @param  lastUpdatedBlock  block.number of the most recent write.\n    struct Claim {\n        uint256    id;\n        bytes32    externalKey;\n        ClaimState state;\n        uint256    posteriorPPH;\n        uint256    posteriorPPR;\n        uint256    lastUpdatedBlock;\n    }\n\n    /// @notice claimId => Claim record.\n    mapping(uint256 => Claim) public claims;\n\n    /// @notice externalKey => claimId reverse lookup.\n    ///         Enables O(1) key-to-id resolution by the off-chain oracle.\n    ///         Value 0 means no claim exists for that key (claimId 0 is\n    ///         distinguished by checking claims[0].state != None).\n    mapping(bytes32 => uint256) public externalKeyToClaimId;\n\n    /// @dev    Tracks whether a given externalKey has been registered.\n    ///         Needed because claimId 0 is a valid identifier.\n    mapping(bytes32 => bool) private _keyRegistered;\n\n    /// @notice Next claimId; incremented atomically on each openClaim().\n    uint256 public nextClaimId;\n\n    // ----------------------------------------------------------------\n    // Events\n    // ----------------------------------------------------------------\n\n    /// @notice Emitted when the OracleController binding changes.\n    event OracleControllerUpdated(\n        address indexed previousController,\n        address indexed newController\n    );\n\n    /// @notice Emitted when a new claim is opened.\n    ///         Both claimId and externalKey are indexed for efficient\n    ///         lookup by either identifier.\n    event ClaimOpened(\n        uint256 indexed claimId,\n        bytes32 indexed externalKey,\n        uint256         blockNumber\n    );\n\n    /// @notice Emitted on every posterior update.\n    ///         blockNumber enables auditors to correlate the update with\n    ///         the CPTStore parameter snapshot used by the oracle.\n    event ClaimPosteriorUpdated(\n        uint256 indexed claimId,\n        uint256         posteriorPPH,\n        uint256         posteriorPPR,\n        uint256         blockNumber\n    );\n\n    /// @notice Emitted when a claim is finalized.\n    event ClaimFinalized(\n        uint256 indexed claimId,\n        uint256         blockNumber\n    );\n\n    // ----------------------------------------------------------------\n    // Modifiers\n    // ----------------------------------------------------------------\n\n    modifier onlyOwner() {\n        require(\n            msg.sender == owner,\n            \"ClaimRegistry: caller is not owner\"\n        );\n        _;\n    }\n\n    modifier onlyOracleController() {\n        require(\n            msg.sender == oracleController,\n            \"ClaimRegistry: caller is not OracleController\"\n        );\n        _;\n    }\n\n    // ----------------------------------------------------------------\n    // Constructor\n    // ----------------------------------------------------------------\n\n    constructor() {\n        owner = msg.sender;\n    }\n\n    // ----------------------------------------------------------------\n    // Owner administration\n    // ----------------------------------------------------------------\n\n    /// @notice Binds the OracleController address.\n    ///         Must be called once after deployment, before any claims\n    ///         are opened.  Can be updated by the owner if the\n    ///         controller contract is redeployed.\n    /// @param  newController  Address of the deployed OracleController.\n    function setOracleController(address newController)\n        external\n        onlyOwner\n    {\n        require(\n            newController != address(0),\n            \"ClaimRegistry: zero address\"\n        );\n        emit OracleControllerUpdated(oracleController, newController);\n        oracleController = newController;\n    }\n\n    // ----------------------------------------------------------------\n    // Claim lifecycle writes  (onlyOracleController)\n    // ----------------------------------------------------------------\n\n    /// @notice Opens a new claim.  Transition: None -> Open.\n    /// @dev    Called by OracleController on behalf of an application.\n    ///         externalKey must be unique; duplicate keys are rejected\n    ///         to prevent two claims from being created for the same\n    ///         physician visit.\n    /// @param  externalKey  keccak256(visit metadata); must be unique.\n    /// @return claimId      Internal on-chain identifier for this claim.\n    function openClaim(bytes32 externalKey)\n        external\n        onlyOracleController\n        returns (uint256 claimId)\n    {\n        require(\n            !_keyRegistered[externalKey],\n            \"ClaimRegistry: externalKey already registered\"\n        );\n\n        claimId = nextClaimId++;\n\n        claims[claimId] = Claim({\n            id:               claimId,\n            externalKey:      externalKey,\n            state:            ClaimState.Open,\n            posteriorPPH:     0,\n            posteriorPPR:     0,\n            lastUpdatedBlock: block.number\n        });\n\n        externalKeyToClaimId[externalKey] = claimId;\n        _keyRegistered[externalKey]       = true;\n\n        emit ClaimOpened(claimId, externalKey, block.number);\n    }\n\n    /// @notice Updates the committed posterior for an open claim.\n    /// @dev    Accepts repeated updates; each replaces the previous\n    ///         posterior and appends a new audit event.\n    ///         Reverts if the claim is Finalized (absorbing state).\n    ///         posteriorPPH and posteriorPPR are checked independently;\n    ///         they need not sum to SCALE (see contract-level note on\n    ///         marginal independence of the PPH and PPR root nodes).\n    /// @param  claimId       Internal claim identifier.\n    /// @param  posteriorPPH  Scaled P(PPH=true | evidence) in [0,SCALE].\n    /// @param  posteriorPPR  Scaled P(PPR=true | evidence) in [0,SCALE].\n    function updatePosterior(\n        uint256 claimId,\n        uint256 posteriorPPH,\n        uint256 posteriorPPR\n    ) external onlyOracleController {\n        require(\n            posteriorPPH <= SCALE,\n            \"ClaimRegistry: posteriorPPH exceeds SCALE\"\n        );\n        require(\n            posteriorPPR <= SCALE,\n            \"ClaimRegistry: posteriorPPR exceeds SCALE\"\n        );\n\n        Claim storage c = claims[claimId];\n        require(\n            c.state == ClaimState.Open,\n            \"ClaimRegistry: claim not open\"\n        );\n\n        c.posteriorPPH     = posteriorPPH;\n        c.posteriorPPR     = posteriorPPR;\n        c.lastUpdatedBlock = block.number;\n\n        emit ClaimPosteriorUpdated(\n            claimId,\n            posteriorPPH,\n            posteriorPPR,\n            block.number\n        );\n    }\n\n    /// @notice Finalizes an open claim.  Transition: Open -> Finalized.\n    /// @dev    Finalized is absorbing: this function and updatePosterior()\n    ///         both revert if called again on a Finalized claim.\n    ///         Called by OracleController when the application signals\n    ///         that its completion condition has been met.\n    /// @param  claimId  Internal claim identifier.\n    function finalizeClaim(uint256 claimId)\n        external\n        onlyOracleController\n    {\n        Claim storage c = claims[claimId];\n        require(\n            c.state == ClaimState.Open,\n            \"ClaimRegistry: claim not open\"\n        );\n\n        c.state            = ClaimState.Finalized;\n        c.lastUpdatedBlock = block.number;\n\n        emit ClaimFinalized(claimId, block.number);\n    }\n\n    // ----------------------------------------------------------------\n    // View helpers\n    // ----------------------------------------------------------------\n\n    /// @notice Returns the lifecycle state of a claim.\n    /// @param  claimId  Internal claim identifier.\n    /// @return Current ClaimState (None / Open / Finalized).\n    function getClaimState(uint256 claimId)\n        external\n        view\n        returns (ClaimState)\n    {\n        return claims[claimId].state;\n    }\n\n    /// @notice Returns the full claim record.\n    /// @param  claimId  Internal claim identifier.\n    \n    function getClaim(uint256 claimId)\n        external\n        view\n        returns (\n            uint256    id,\n            bytes32    externalKey,\n            ClaimState state,\n            uint256    posteriorPPH,\n            uint256    posteriorPPR,\n            uint256    lastUpdatedBlock\n        )\n    {\n        Claim storage c = claims[claimId];\n        return (\n            c.id,\n            c.externalKey,\n            c.state,\n            c.posteriorPPH,\n            c.posteriorPPR,\n            c.lastUpdatedBlock\n        );\n    }\n\n    /// @notice Resolves a visit-metadata key to an on-chain claimId.\n    /// @dev    Returns (claimId, true) if registered,\n    ///         (0, false) if not found.\n    /// @param  externalKey  keccak256(visit metadata).\n    /// @return claimId      On-chain claim identifier.\n    /// @return found        True iff a claim is registered for this key.\n    function resolveKey(bytes32 externalKey)\n        external\n        view\n        returns (uint256 claimId, bool found)\n    {\n        found   = _keyRegistered[externalKey];\n        claimId = found ? externalKeyToClaimId[externalKey] : 0;\n    }\n}\n",
  "sourcePath": "C:\\Users\\tariq\\Downloads\\ScalableBN\\contracts\\ClaimRegistry.sol",
  "compiler": {
    "name": "solc",
    "version": "0.8.17+commit.8df45f5f.Emscripten.clang"
  },
  "schemaVersion": "3.4.16",
  "updatedAt": "2026-05-27T02:43:25.463Z",
  "networkType": "ethereum",
  "devdoc": {
    "details": "Paper-aligned design invariants (Section IV-A):         1. Three-state machine: None -> Open -> Finalized.            The Finalized state is absorbing; updatePosterior() and            finalizeClaim() both revert if the claim is not Open.         2. Only OracleController may transition claim state or write            posteriors.  Applications open and finalize claims by            calling the corresponding OracleController functions,            which in turn call this registry.  This keeps a single            authorised entry point for all claim mutations and matches            the paper's workflow (Section III-E).         3. Every state transition and posterior update records            block.number.  The oracle also records the CPTStore block            height at BN reconstruction time; together these two            values allow auditors to detect parameter-submission races.         4. posteriorPPH and posteriorPPR are range-checked            independently against SCALE.  They are NOT required to            sum to SCALE because PPH and PPR are marginally independent            root nodes; mutual exclusivity of claim types            is enforced at the application layer, not in the BN.         5. A reverse mapping externalKey -> claimId allows the oracle            to resolve visit-metadata keys to on-chain identifiers in            O(1) without scanning event logs.  A duplicate-key guard            prevents two claims from being opened for the same visit.",
    "kind": "dev",
    "methods": {
      "finalizeClaim(uint256)": {
        "details": "Finalized is absorbing: this function and updatePosterior()         both revert if called again on a Finalized claim.         Called by OracleController when the application signals         that its completion condition has been met.",
        "params": {
          "claimId": "Internal claim identifier."
        }
      },
      "getClaim(uint256)": {
        "params": {
          "claimId": "Internal claim identifier."
        }
      },
      "getClaimState(uint256)": {
        "params": {
          "claimId": "Internal claim identifier."
        },
        "returns": {
          "_0": "Current ClaimState (None / Open / Finalized)."
        }
      },
      "openClaim(bytes32)": {
        "details": "Called by OracleController on behalf of an application.         externalKey must be unique; duplicate keys are rejected         to prevent two claims from being created for the same         physician visit.",
        "params": {
          "externalKey": "keccak256(visit metadata); must be unique."
        },
        "returns": {
          "claimId": "     Internal on-chain identifier for this claim."
        }
      },
      "resolveKey(bytes32)": {
        "details": "Returns (claimId, true) if registered,         (0, false) if not found.",
        "params": {
          "externalKey": "keccak256(visit metadata)."
        },
        "returns": {
          "claimId": "     On-chain claim identifier.",
          "found": "       True iff a claim is registered for this key."
        }
      },
      "setOracleController(address)": {
        "params": {
          "newController": "Address of the deployed OracleController."
        }
      },
      "updatePosterior(uint256,uint256,uint256)": {
        "details": "Accepts repeated updates; each replaces the previous         posterior and appends a new audit event.         Reverts if the claim is Finalized (absorbing state).         posteriorPPH and posteriorPPR are checked independently;         they need not sum to SCALE (see contract-level note on         marginal independence of the PPH and PPR root nodes).",
        "params": {
          "claimId": "Internal claim identifier.",
          "posteriorPPH": "Scaled P(PPH=true | evidence) in [0,SCALE].",
          "posteriorPPR": "Scaled P(PPR=true | evidence) in [0,SCALE]."
        }
      }
    },
    "stateVariables": {
      "_keyRegistered": {
        "details": "Tracks whether a given externalKey has been registered.         Needed because claimId 0 is a valid identifier."
      }
    },
    "title": "ClaimRegistry",
    "version": 1
  },
  "userdoc": {
    "events": {
      "ClaimFinalized(uint256,uint256)": {
        "notice": "Emitted when a claim is finalized."
      },
      "ClaimOpened(uint256,bytes32,uint256)": {
        "notice": "Emitted when a new claim is opened.         Both claimId and externalKey are indexed for efficient         lookup by either identifier."
      },
      "ClaimPosteriorUpdated(uint256,uint256,uint256,uint256)": {
        "notice": "Emitted on every posterior update.         blockNumber enables auditors to correlate the update with         the CPTStore parameter snapshot used by the oracle."
      },
      "OracleControllerUpdated(address,address)": {
        "notice": "Emitted when the OracleController binding changes."
      }
    },
    "kind": "user",
    "methods": {
      "SCALE()": {
        "notice": "Scale factor shared across LUNA contracts.         All posteriors p in [0,1] are stored as round(p * SCALE)."
      },
      "claims(uint256)": {
        "notice": "claimId => Claim record."
      },
      "externalKeyToClaimId(bytes32)": {
        "notice": "externalKey => claimId reverse lookup.         Enables O(1) key-to-id resolution by the off-chain oracle.         Value 0 means no claim exists for that key (claimId 0 is         distinguished by checking claims[0].state != None)."
      },
      "finalizeClaim(uint256)": {
        "notice": "Finalizes an open claim.  Transition: Open -> Finalized."
      },
      "getClaim(uint256)": {
        "notice": "Returns the full claim record."
      },
      "getClaimState(uint256)": {
        "notice": "Returns the lifecycle state of a claim."
      },
      "nextClaimId()": {
        "notice": "Next claimId; incremented atomically on each openClaim()."
      },
      "openClaim(bytes32)": {
        "notice": "Opens a new claim.  Transition: None -> Open."
      },
      "oracleController()": {
        "notice": "The single authorised writer for all claim mutations.         Set once after deployment via setOracleController()."
      },
      "owner()": {
        "notice": "Deployer; permitted only to bind the OracleController."
      },
      "resolveKey(bytes32)": {
        "notice": "Resolves a visit-metadata key to an on-chain claimId."
      },
      "setOracleController(address)": {
        "notice": "Binds the OracleController address.         Must be called once after deployment, before any claims         are opened.  Can be updated by the owner if the         controller contract is redeployed."
      },
      "updatePosterior(uint256,uint256,uint256)": {
        "notice": "Updates the committed posterior for an open claim."
      }
    },
    "notice": "Manages the lifecycle of LUNA claims and stores the latest         committed posterior for each claim.",
    "version": 1
  }
}