{
  "contractName": "EvidenceRegistry",
  "abi": [
    {
      "inputs": [],
      "stateMutability": "nonpayable",
      "type": "constructor"
    },
    {
      "anonymous": false,
      "inputs": [
        {
          "indexed": true,
          "internalType": "address",
          "name": "previousController",
          "type": "address"
        },
        {
          "indexed": true,
          "internalType": "address",
          "name": "newController",
          "type": "address"
        }
      ],
      "name": "ControllerUpdated",
      "type": "event"
    },
    {
      "anonymous": false,
      "inputs": [
        {
          "indexed": true,
          "internalType": "uint256",
          "name": "evidenceId",
          "type": "uint256"
        },
        {
          "indexed": true,
          "internalType": "uint256",
          "name": "claimId",
          "type": "uint256"
        },
        {
          "indexed": true,
          "internalType": "address",
          "name": "submitter",
          "type": "address"
        },
        {
          "indexed": false,
          "internalType": "uint8",
          "name": "gps",
          "type": "uint8"
        },
        {
          "indexed": false,
          "internalType": "uint8",
          "name": "pc",
          "type": "uint8"
        },
        {
          "indexed": false,
          "internalType": "uint8",
          "name": "pmd",
          "type": "uint8"
        },
        {
          "indexed": false,
          "internalType": "uint8",
          "name": "pr",
          "type": "uint8"
        },
        {
          "indexed": false,
          "internalType": "uint256",
          "name": "posteriorPPH",
          "type": "uint256"
        },
        {
          "indexed": false,
          "internalType": "uint256",
          "name": "posteriorPPR",
          "type": "uint256"
        },
        {
          "indexed": false,
          "internalType": "uint256",
          "name": "blockNumber",
          "type": "uint256"
        }
      ],
      "name": "EvidenceRecorded",
      "type": "event"
    },
    {
      "anonymous": false,
      "inputs": [
        {
          "indexed": true,
          "internalType": "address",
          "name": "previousOwner",
          "type": "address"
        },
        {
          "indexed": true,
          "internalType": "address",
          "name": "newOwner",
          "type": "address"
        }
      ],
      "name": "OwnershipTransferred",
      "type": "event"
    },
    {
      "inputs": [],
      "name": "SCALE",
      "outputs": [
        {
          "internalType": "uint256",
          "name": "",
          "type": "uint256"
        }
      ],
      "stateMutability": "view",
      "type": "function",
      "constant": true
    },
    {
      "inputs": [],
      "name": "controller",
      "outputs": [
        {
          "internalType": "address",
          "name": "",
          "type": "address"
        }
      ],
      "stateMutability": "view",
      "type": "function",
      "constant": true
    },
    {
      "inputs": [],
      "name": "nextEvidenceId",
      "outputs": [
        {
          "internalType": "uint256",
          "name": "",
          "type": "uint256"
        }
      ],
      "stateMutability": "view",
      "type": "function",
      "constant": true
    },
    {
      "inputs": [],
      "name": "owner",
      "outputs": [
        {
          "internalType": "address",
          "name": "",
          "type": "address"
        }
      ],
      "stateMutability": "view",
      "type": "function",
      "constant": true
    },
    {
      "inputs": [
        {
          "internalType": "address",
          "name": "newOwner",
          "type": "address"
        }
      ],
      "name": "transferOwnership",
      "outputs": [],
      "stateMutability": "nonpayable",
      "type": "function"
    },
    {
      "inputs": [
        {
          "internalType": "address",
          "name": "newController",
          "type": "address"
        }
      ],
      "name": "setController",
      "outputs": [],
      "stateMutability": "nonpayable",
      "type": "function"
    },
    {
      "inputs": [
        {
          "internalType": "uint256",
          "name": "claimId",
          "type": "uint256"
        },
        {
          "internalType": "uint8",
          "name": "gps",
          "type": "uint8"
        },
        {
          "internalType": "uint8",
          "name": "pc",
          "type": "uint8"
        },
        {
          "internalType": "uint8",
          "name": "pmd",
          "type": "uint8"
        },
        {
          "internalType": "uint8",
          "name": "pr",
          "type": "uint8"
        },
        {
          "internalType": "uint256",
          "name": "posteriorPPH",
          "type": "uint256"
        },
        {
          "internalType": "uint256",
          "name": "posteriorPPR",
          "type": "uint256"
        },
        {
          "internalType": "address",
          "name": "submitter",
          "type": "address"
        }
      ],
      "name": "recordEvidence",
      "outputs": [
        {
          "internalType": "uint256",
          "name": "evidenceId",
          "type": "uint256"
        }
      ],
      "stateMutability": "nonpayable",
      "type": "function"
    },
    {
      "inputs": [
        {
          "internalType": "uint256",
          "name": "evidenceId",
          "type": "uint256"
        }
      ],
      "name": "getEvidence",
      "outputs": [
        {
          "components": [
            {
              "internalType": "uint256",
              "name": "claimId",
              "type": "uint256"
            },
            {
              "internalType": "uint8",
              "name": "gps",
              "type": "uint8"
            },
            {
              "internalType": "uint8",
              "name": "pc",
              "type": "uint8"
            },
            {
              "internalType": "uint8",
              "name": "pmd",
              "type": "uint8"
            },
            {
              "internalType": "uint8",
              "name": "pr",
              "type": "uint8"
            },
            {
              "internalType": "uint256",
              "name": "posteriorPPH",
              "type": "uint256"
            },
            {
              "internalType": "uint256",
              "name": "posteriorPPR",
              "type": "uint256"
            },
            {
              "internalType": "address",
              "name": "submitter",
              "type": "address"
            },
            {
              "internalType": "uint256",
              "name": "blockNumber",
              "type": "uint256"
            }
          ],
          "internalType": "struct EvidenceRegistry.EvidenceRecord",
          "name": "",
          "type": "tuple"
        }
      ],
      "stateMutability": "view",
      "type": "function",
      "constant": true
    }
  ],
  "bytecode": "0x6080806040523461002857600080546001600160a01b031916331790556108fa908161002e8239f35b600080fdfe608080604052600436101561001357600080fd5b60003560e01c90816329caec3214610802575080637b06d094146103a15780638da5cb5b1461037857806392eefe9b146102b1578063c956f1431461017a578063eced55261461015c578063f2fde38b146100a55763f77c47911461007757600080fd5b346100a05760003660031901126100a0576001546040516001600160a01b039091168152602090f35b600080fd5b346100a05760203660031901126100a0576100be61081d565b6000546001600160a01b03808216926100d8338514610833565b169182156101175782907f8be0079c531659141344cd1fd0a4f28419497f9722a3daafe3b4186f6b6457e0600080a36001600160a01b03191617600055005b60405162461bcd60e51b815260206004820152601e60248201527f45766964656e636552656769737472793a207a65726f206164647265737300006044820152606490fd5b346100a05760003660031901126100a0576020604051620f42408152f35b346100a05760203660031901126100a057600061010061019861088d565b8281528260208201528260408201528260608201528260808201528260a08201528260c08201528260e08201520152600435600052600360205261012060406000206101006101e561088d565b600583549384835260ff60018201548181166020860152818160081c166040860152818160101c16606086015260181c166080840152600281015460a0840152600381015460c084015260018060a01b0360048201541660e084015201548282015260405192835260ff602082015116602084015260ff604082015116604084015260ff606082015116606084015260ff608082015116608084015260a081015160a084015260c081015160c084015260018060a01b0360e08201511660e08401520151610100820152f35b346100a05760203660031901126100a0576102ca61081d565b6000546001600160a01b039182916102e59083163314610833565b1690811561032957816001549182167f1c87e2bbc4e5fa5d7f6f8c44d66cb241dff224b8602eb5435ca2076d2a5c6fc2600080a36001600160a01b03191617600155005b60405162461bcd60e51b815260206004820152602160248201527f45766964656e636552656769737472793a207a65726f20636f6e74726f6c6c656044820152603960f91b6064820152608490fd5b346100a05760003660031901126100a0576000546040516001600160a01b039091168152602090f35b346100a0576101003660031901126100a057602480359060ff821682036100a05760449182359260ff841684036100a05760649384359060ff821682036100a0576084359560ff871687036100a05760e435936001600160a01b03851685036100a0576001546001600160a01b031633036107ad57600260ff8716101561076c57600260ff8416101561072b57600260ff851610156106ea57600260ff891610156106a957620f42408060a435116106675760c43511610626576001600160a01b038516156105e65750506002549460018601908187116105d2575060ff928360209893819360025561049261088d565b600435815260058a898d8401868d1681526040850187871681526060860191888a1683526080870191898d16835260a088019260a435845260c089019460c435865260e08a019660018060a01b031687526101008a0197438952600052602060039052604060002099518a558b60018b0194511663ff00000062ff000061ff008754965160081b16935160101b16935160181b169363ffffffff1916171717179055516002860155516003850155600484019060018060a01b039051166bffffffffffffffffffffffff60a01b825416179055519101558160405198168852168887015216604085015216606083015260a435608083015260c43560a08301524360c083015260018060a01b031690827f3a604b41a2dfda0ac86232b35701d9b0410f7be3127e56ca8a0d6b2604fcaf3860e060043593a4604051908152f35b634e487b7160e01b60009081526011600452fd5b7f45766964656e636552656769737472793a207a65726f207375626d6974746572879160206040519362461bcd60e51b8552816004860152840152820152fd5b7f45766964656e636552656769737472793a20505052203e205343414c450000008791601d6040519362461bcd60e51b855260206004860152840152820152fd5b507f45766964656e636552656769737472793a20505048203e205343414c450000008791601d6040519362461bcd60e51b855260206004860152840152820152fd5b7f45766964656e636552656769737472793a206261642070720000000000000000879160186040519362461bcd60e51b855260206004860152840152820152fd5b7f45766964656e636552656769737472793a2062616420706d6400000000000000879160196040519362461bcd60e51b855260206004860152840152820152fd5b7f45766964656e636552656769737472793a206261642070630000000000000000879160186040519362461bcd60e51b855260206004860152840152820152fd5b7f45766964656e636552656769737472793a206261642067707300000000000000879160196040519362461bcd60e51b855260206004860152840152820152fd5b6931b7b73a3937b63632b960b11b6084927f45766964656e636552656769737472793a2063616c6c6572206973206e6f74208993602a6040519562461bcd60e51b875260206004880152860152840152820152fd5b346100a05760003660031901126100a0576020906002548152f35b600435906001600160a01b03821682036100a057565b1561083a57565b60405162461bcd60e51b815260206004820152602560248201527f45766964656e636552656769737472793a2063616c6c6572206973206e6f742060448201526437bbb732b960d91b6064820152608490fd5b60405190610120820182811067ffffffffffffffff8211176108ae57604052565b634e487b7160e01b600052604160045260246000fdfea2646970667358221220279a4b0527845b3e8d80cb6ae3547ea1f3fab4e30f2d250e4fdec5185a42298e64736f6c63430008110033",
  "immutableReferences": {},
  "source": "// SPDX-License-Identifier: MIT\npragma solidity ^0.8.17;\n\n/// @title  EvidenceRegistry\n/// @notice Append-only evidence log for LUNA.\n///\n/// @dev    Paper-aligned design invariants (Section IV-A):\n///\n///         1. Append-only: records are never modified or deleted.\n///            recordEvidence() is the only function that writes to\n///            the records mapping; no delete or overwrite path exists.\n///\n///         2. Monotonic evidenceId allocation via nextEvidenceId.\n///\n///         3. Each record stores: claimId, four binary evidence bits\n///            (gps, pc, pmd, pr), scaled posteriors (PPH, PPR),\n///            submitter address, and block.number.\n///\n///         4. Only the configured controller (OracleController) may\n///            append records.  A separate owner role (deployer) holds\n///            the sole right to reassign the controller, preventing an\n///            attacker who compromises the controller from permanently\n///            locking or redirecting the registry.\n///\n///         5. Transcript reconstruction: the full inference history for\n///            any claim is recoverable by filtering EvidenceRecorded\n///            events by claimId.  On-chain storage via getEvidence()\n///            provides direct access by evidenceId.  This satisfies the\n///            paper's audit completeness claim without requiring an\n///            on-chain claimId index (which would add SSTORE cost per\n///            append and is unnecessary given event availability).\n///\n///         6. Evidence bits are validated in both OracleController and\n///            here.  The double-check is intentional defense-in-depth:\n///            EvidenceRegistry must not trust its caller unconditionally.\n///            The marginal gas cost is ~4 × 100 gas per append.\n\ncontract EvidenceRegistry {\n\n    // ----------------------------------------------------------------\n    // Constants\n    // ----------------------------------------------------------------\n\n    /// @notice Scale factor shared across LUNA contracts.\n    uint256 public constant SCALE = 1_000_000;\n\n    // ----------------------------------------------------------------\n    // Roles\n    // ----------------------------------------------------------------\n\n    /// @notice Deployer; sole address permitted to reassign controller.\n    ///         Separated from controller to prevent controller-key\n    ///         compromise from permanently redirecting the registry.\n    address public owner;\n\n    /// @notice Address permitted to append evidence records.\n    ///         Set to OracleController after deployment.\n    address public controller;\n\n    // ----------------------------------------------------------------\n    // Evidence log\n    // ----------------------------------------------------------------\n\n    /// @notice Monotonically increasing evidence identifier.\n    ///         Incremented atomically on each recordEvidence() call.\n    uint256 public nextEvidenceId;\n\n    /// @notice Full evidence record.\n    /// @param  claimId       Internal LUNA claim identifier.\n    /// @param  gps           GPS consistency evidence bit (0 or 1).\n    /// @param  pc            Patient confirmation evidence bit (0 or 1).\n    /// @param  pmd           Physician medical device log bit (0 or 1).\n    /// @param  pr            Physician prescription evidence bit (0 or 1).\n    /// @param  posteriorPPH  Scaled P(PPH=true | evidence) at append time.\n    /// @param  posteriorPPR  Scaled P(PPR=true | evidence) at append time.\n    /// @param  submitter     Address of the submitting oracle operator.\n    /// @param  blockNumber   Block at which this record was appended.\n    struct EvidenceRecord {\n        uint256 claimId;\n        uint8   gps;\n        uint8   pc;\n        uint8   pmd;\n        uint8   pr;\n        uint256 posteriorPPH;\n        uint256 posteriorPPR;\n        address submitter;\n        uint256 blockNumber;\n    }\n\n    /// @dev    evidenceId => EvidenceRecord.  Private; access via\n    ///         getEvidence() or by filtering EvidenceRecorded events.\n    mapping(uint256 => EvidenceRecord) private records;\n\n    // ----------------------------------------------------------------\n    // Events\n    // ----------------------------------------------------------------\n\n    /// @notice Emitted when ownership is transferred.\n    event OwnershipTransferred(\n        address indexed previousOwner,\n        address indexed newOwner\n    );\n\n    /// @notice Emitted when the controller is reassigned.\n    event ControllerUpdated(\n        address indexed previousController,\n        address indexed newController\n    );\n\n    /// @notice Emitted on every evidence append.\n    ///         evidenceId, claimId, and submitter are indexed (EVM\n    ///         3-topic limit).  All other fields are in event data and\n    ///         recoverable via log scanning or getEvidence().\n    ///         Filtering by claimId reconstructs the full inference\n    ///         transcript for any claim without on-chain enumeration.\n    event EvidenceRecorded(\n        uint256 indexed evidenceId,\n        uint256 indexed claimId,\n        address indexed submitter,\n        uint8           gps,\n        uint8           pc,\n        uint8           pmd,\n        uint8           pr,\n        uint256         posteriorPPH,\n        uint256         posteriorPPR,\n        uint256         blockNumber\n    );\n\n    // ----------------------------------------------------------------\n    // Modifiers\n    // ----------------------------------------------------------------\n\n    modifier onlyOwner() {\n        require(\n            msg.sender == owner,\n            \"EvidenceRegistry: caller is not owner\"\n        );\n        _;\n    }\n\n    modifier onlyController() {\n        require(\n            msg.sender == controller,\n            \"EvidenceRegistry: caller is not controller\"\n        );\n        _;\n    }\n\n    // ----------------------------------------------------------------\n    // Constructor\n    // ----------------------------------------------------------------\n\n    /// @notice Deploys EvidenceRegistry.\n    ///         controller is set separately via setController() after\n    ///         OracleController is deployed, to avoid circular\n    ///         deployment dependency.\n    constructor() {\n        owner = msg.sender;\n    }\n\n    // ----------------------------------------------------------------\n    // Owner administration\n    // ----------------------------------------------------------------\n\n    /// @notice Transfers ownership to newOwner.\n    /// @param  newOwner  Must be non-zero.\n    function transferOwnership(address newOwner) external onlyOwner {\n        require(newOwner != address(0), \"EvidenceRegistry: zero address\");\n        emit OwnershipTransferred(owner, newOwner);\n        owner = newOwner;\n    }\n\n    /// @notice Assigns or reassigns the controller.\n    /// @dev    Only the owner (deployer) may call this, preventing a\n    ///         compromised controller from redirecting the registry.\n    /// @param  newController  Address of the OracleController contract.\n    function setController(address newController) external onlyOwner {\n        require(\n            newController != address(0),\n            \"EvidenceRegistry: zero controller\"\n        );\n        emit ControllerUpdated(controller, newController);\n        controller = newController;\n    }\n\n    // ----------------------------------------------------------------\n    // Append\n    // ----------------------------------------------------------------\n\n    /// @notice Appends an immutable evidence record.\n    /// @dev    Defense-in-depth: evidence bits and posteriors are\n    ///         validated here even though OracleController validates\n    ///         them first.  EvidenceRegistry must not blindly trust\n    ///         its caller.\n    ///\n    ///         posteriorPPH and posteriorPPR are checked independently\n    ///         against SCALE.  They need not sum to SCALE because PPH\n    ///         and PPR are marginally independent root nodes in the BN.\n    ///\n    /// @param  claimId       Internal LUNA claim identifier.\n    /// @param  gps           GPS evidence bit in {0, 1}.\n    /// @param  pc            Patient confirmation bit in {0, 1}.\n    /// @param  pmd           Physician device log bit in {0, 1}.\n    /// @param  pr            Physician prescription bit in {0, 1}.\n    /// @param  posteriorPPH  Scaled P(PPH=true|e) in [0, SCALE].\n    /// @param  posteriorPPR  Scaled P(PPR=true|e) in [0, SCALE].\n    /// @param  submitter     Oracle operator address; must be non-zero.\n    /// @return evidenceId    Monotonically allocated record identifier.\n    function recordEvidence(\n        uint256 claimId,\n        uint8   gps,\n        uint8   pc,\n        uint8   pmd,\n        uint8   pr,\n        uint256 posteriorPPH,\n        uint256 posteriorPPR,\n        address submitter\n    ) external onlyController returns (uint256 evidenceId) {\n        require(gps < 2,   \"EvidenceRegistry: bad gps\");\n        require(pc  < 2,   \"EvidenceRegistry: bad pc\");\n        require(pmd < 2,   \"EvidenceRegistry: bad pmd\");\n        require(pr  < 2,   \"EvidenceRegistry: bad pr\");\n        require(posteriorPPH <= SCALE, \"EvidenceRegistry: PPH > SCALE\");\n        require(posteriorPPR <= SCALE, \"EvidenceRegistry: PPR > SCALE\");\n        require(submitter != address(0), \"EvidenceRegistry: zero submitter\");\n\n        evidenceId      = nextEvidenceId;\n        nextEvidenceId += 1;\n\n        records[evidenceId] = EvidenceRecord({\n            claimId:      claimId,\n            gps:          gps,\n            pc:           pc,\n            pmd:          pmd,\n            pr:           pr,\n            posteriorPPH: posteriorPPH,\n            posteriorPPR: posteriorPPR,\n            submitter:    submitter,\n            blockNumber:  block.number\n        });\n\n        emit EvidenceRecorded(\n            evidenceId,\n            claimId,\n            submitter,\n            gps, pc, pmd, pr,\n            posteriorPPH,\n            posteriorPPR,\n            block.number\n        );\n    }\n\n    // ----------------------------------------------------------------\n    // View helpers\n    // ----------------------------------------------------------------\n\n    /// @notice Returns the full evidence record for a given evidenceId.\n    /// @param  evidenceId  Monotonic record identifier.\n    /// @return Full EvidenceRecord struct.\n    function getEvidence(uint256 evidenceId)\n        external\n        view\n        returns (EvidenceRecord memory)\n    {\n        return records[evidenceId];\n    }\n}\n",
  "sourcePath": "C:\\Users\\tariq\\Downloads\\ScalableBN\\contracts\\EvidenceRegistry.sol",
  "compiler": {
    "name": "solc",
    "version": "0.8.17+commit.8df45f5f.Emscripten.clang"
  },
  "schemaVersion": "3.4.16",
  "updatedAt": "2026-05-27T02:43:25.482Z",
  "networkType": "ethereum",
  "devdoc": {
    "details": "Paper-aligned design invariants (Section IV-A):         1. Append-only: records are never modified or deleted.            recordEvidence() is the only function that writes to            the records mapping; no delete or overwrite path exists.         2. Monotonic evidenceId allocation via nextEvidenceId.         3. Each record stores: claimId, four binary evidence bits            (gps, pc, pmd, pr), scaled posteriors (PPH, PPR),            submitter address, and block.number.         4. Only the configured controller (OracleController) may            append records.  A separate owner role (deployer) holds            the sole right to reassign the controller, preventing an            attacker who compromises the controller from permanently            locking or redirecting the registry.         5. Transcript reconstruction: the full inference history for            any claim is recoverable by filtering EvidenceRecorded            events by claimId.  On-chain storage via getEvidence()            provides direct access by evidenceId.  This satisfies the            paper's audit completeness claim without requiring an            on-chain claimId index (which would add SSTORE cost per            append and is unnecessary given event availability).         6. Evidence bits are validated in both OracleController and            here.  The double-check is intentional defense-in-depth:            EvidenceRegistry must not trust its caller unconditionally.            The marginal gas cost is ~4 × 100 gas per append.",
    "kind": "dev",
    "methods": {
      "getEvidence(uint256)": {
        "params": {
          "evidenceId": "Monotonic record identifier."
        },
        "returns": {
          "_0": "Full EvidenceRecord struct."
        }
      },
      "recordEvidence(uint256,uint8,uint8,uint8,uint8,uint256,uint256,address)": {
        "details": "Defense-in-depth: evidence bits and posteriors are         validated here even though OracleController validates         them first.  EvidenceRegistry must not blindly trust         its caller.         posteriorPPH and posteriorPPR are checked independently         against SCALE.  They need not sum to SCALE because PPH         and PPR are marginally independent root nodes in the BN.",
        "params": {
          "claimId": "Internal LUNA claim identifier.",
          "gps": "GPS evidence bit in {0, 1}.",
          "pc": "Patient confirmation bit in {0, 1}.",
          "pmd": "Physician device log bit in {0, 1}.",
          "posteriorPPH": "Scaled P(PPH=true|e) in [0, SCALE].",
          "posteriorPPR": "Scaled P(PPR=true|e) in [0, SCALE].",
          "pr": "Physician prescription bit in {0, 1}.",
          "submitter": "Oracle operator address; must be non-zero."
        },
        "returns": {
          "evidenceId": "   Monotonically allocated record identifier."
        }
      },
      "setController(address)": {
        "details": "Only the owner (deployer) may call this, preventing a         compromised controller from redirecting the registry.",
        "params": {
          "newController": "Address of the OracleController contract."
        }
      },
      "transferOwnership(address)": {
        "params": {
          "newOwner": "Must be non-zero."
        }
      }
    },
    "stateVariables": {
      "records": {
        "details": "evidenceId => EvidenceRecord.  Private; access via         getEvidence() or by filtering EvidenceRecorded events."
      }
    },
    "title": "EvidenceRegistry",
    "version": 1
  },
  "userdoc": {
    "events": {
      "ControllerUpdated(address,address)": {
        "notice": "Emitted when the controller is reassigned."
      },
      "EvidenceRecorded(uint256,uint256,address,uint8,uint8,uint8,uint8,uint256,uint256,uint256)": {
        "notice": "Emitted on every evidence append.         evidenceId, claimId, and submitter are indexed (EVM         3-topic limit).  All other fields are in event data and         recoverable via log scanning or getEvidence().         Filtering by claimId reconstructs the full inference         transcript for any claim without on-chain enumeration."
      },
      "OwnershipTransferred(address,address)": {
        "notice": "Emitted when ownership is transferred."
      }
    },
    "kind": "user",
    "methods": {
      "SCALE()": {
        "notice": "Scale factor shared across LUNA contracts."
      },
      "constructor": {
        "notice": "Deploys EvidenceRegistry.         controller is set separately via setController() after         OracleController is deployed, to avoid circular         deployment dependency."
      },
      "controller()": {
        "notice": "Address permitted to append evidence records.         Set to OracleController after deployment."
      },
      "getEvidence(uint256)": {
        "notice": "Returns the full evidence record for a given evidenceId."
      },
      "nextEvidenceId()": {
        "notice": "Monotonically increasing evidence identifier.         Incremented atomically on each recordEvidence() call."
      },
      "owner()": {
        "notice": "Deployer; sole address permitted to reassign controller.         Separated from controller to prevent controller-key         compromise from permanently redirecting the registry."
      },
      "recordEvidence(uint256,uint8,uint8,uint8,uint8,uint256,uint256,address)": {
        "notice": "Appends an immutable evidence record."
      },
      "setController(address)": {
        "notice": "Assigns or reassigns the controller."
      },
      "transferOwnership(address)": {
        "notice": "Transfers ownership to newOwner."
      }
    },
    "notice": "Append-only evidence log for LUNA.",
    "version": 1
  }
}