{
  "contractName": "CPTStore",
  "abi": [
    {
      "inputs": [],
      "stateMutability": "nonpayable",
      "type": "constructor"
    },
    {
      "anonymous": false,
      "inputs": [
        {
          "indexed": true,
          "internalType": "uint8",
          "name": "evidenceIndex",
          "type": "uint8"
        },
        {
          "indexed": true,
          "internalType": "uint8",
          "name": "pphState",
          "type": "uint8"
        },
        {
          "indexed": true,
          "internalType": "uint8",
          "name": "pprState",
          "type": "uint8"
        },
        {
          "indexed": false,
          "internalType": "uint256",
          "name": "pTrueScaled",
          "type": "uint256"
        },
        {
          "indexed": false,
          "internalType": "bytes32",
          "name": "bnInstanceId",
          "type": "bytes32"
        }
      ],
      "name": "EvidenceCPTUpdated",
      "type": "event"
    },
    {
      "anonymous": false,
      "inputs": [
        {
          "indexed": true,
          "internalType": "address",
          "name": "previousOwner",
          "type": "address"
        },
        {
          "indexed": true,
          "internalType": "address",
          "name": "newOwner",
          "type": "address"
        }
      ],
      "name": "OwnershipTransferred",
      "type": "event"
    },
    {
      "anonymous": false,
      "inputs": [
        {
          "indexed": false,
          "internalType": "uint256",
          "name": "priorPPHScaled",
          "type": "uint256"
        },
        {
          "indexed": false,
          "internalType": "uint256",
          "name": "priorPPRScaled",
          "type": "uint256"
        },
        {
          "indexed": true,
          "internalType": "bytes32",
          "name": "bnInstanceId",
          "type": "bytes32"
        }
      ],
      "name": "PriorsUpdated",
      "type": "event"
    },
    {
      "inputs": [],
      "name": "NUM_EVIDENCE",
      "outputs": [
        {
          "internalType": "uint8",
          "name": "",
          "type": "uint8"
        }
      ],
      "stateMutability": "view",
      "type": "function",
      "constant": true
    },
    {
      "inputs": [],
      "name": "SCALE",
      "outputs": [
        {
          "internalType": "uint256",
          "name": "",
          "type": "uint256"
        }
      ],
      "stateMutability": "view",
      "type": "function",
      "constant": true
    },
    {
      "inputs": [],
      "name": "bnInstanceId",
      "outputs": [
        {
          "internalType": "bytes32",
          "name": "",
          "type": "bytes32"
        }
      ],
      "stateMutability": "view",
      "type": "function",
      "constant": true
    },
    {
      "inputs": [],
      "name": "owner",
      "outputs": [
        {
          "internalType": "address",
          "name": "",
          "type": "address"
        }
      ],
      "stateMutability": "view",
      "type": "function",
      "constant": true
    },
    {
      "inputs": [],
      "name": "priorPPH",
      "outputs": [
        {
          "internalType": "uint256",
          "name": "",
          "type": "uint256"
        }
      ],
      "stateMutability": "view",
      "type": "function",
      "constant": true
    },
    {
      "inputs": [],
      "name": "priorPPR",
      "outputs": [
        {
          "internalType": "uint256",
          "name": "",
          "type": "uint256"
        }
      ],
      "stateMutability": "view",
      "type": "function",
      "constant": true
    },
    {
      "inputs": [
        {
          "internalType": "address",
          "name": "newOwner",
          "type": "address"
        }
      ],
      "name": "transferOwnership",
      "outputs": [],
      "stateMutability": "nonpayable",
      "type": "function"
    },
    {
      "inputs": [
        {
          "internalType": "uint256",
          "name": "newPriorPPH",
          "type": "uint256"
        },
        {
          "internalType": "uint256",
          "name": "newPriorPPR",
          "type": "uint256"
        }
      ],
      "name": "setPriors",
      "outputs": [],
      "stateMutability": "nonpayable",
      "type": "function"
    },
    {
      "inputs": [
        {
          "internalType": "uint8",
          "name": "evidenceIndex",
          "type": "uint8"
        },
        {
          "internalType": "uint8",
          "name": "pphState",
          "type": "uint8"
        },
        {
          "internalType": "uint8",
          "name": "pprState",
          "type": "uint8"
        },
        {
          "internalType": "uint256",
          "name": "pTrueScaled",
          "type": "uint256"
        }
      ],
      "name": "setEvidenceCPT",
      "outputs": [],
      "stateMutability": "nonpayable",
      "type": "function"
    },
    {
      "inputs": [
        {
          "internalType": "uint8",
          "name": "evidenceIndex",
          "type": "uint8"
        },
        {
          "internalType": "uint8",
          "name": "pphState",
          "type": "uint8"
        },
        {
          "internalType": "uint8",
          "name": "pprState",
          "type": "uint8"
        }
      ],
      "name": "getEvidenceTrueCPT",
      "outputs": [
        {
          "internalType": "uint256",
          "name": "",
          "type": "uint256"
        }
      ],
      "stateMutability": "view",
      "type": "function",
      "constant": true
    },
    {
      "inputs": [],
      "name": "getCPTSnapshot",
      "outputs": [
        {
          "internalType": "uint256",
          "name": "pph",
          "type": "uint256"
        },
        {
          "internalType": "uint256",
          "name": "ppr",
          "type": "uint256"
        },
        {
          "internalType": "uint256[16]",
          "name": "cpts",
          "type": "uint256[16]"
        },
        {
          "internalType": "bytes32",
          "name": "id",
          "type": "bytes32"
        }
      ],
      "stateMutability": "view",
      "type": "function",
      "constant": true
    }
  ],
  "bytecode": "0x6101006040523461004a573360018060a01b031960005416176000556207a12080600155600255600160ff19600554161760055561003b61004f565b604051610bdd90816103b58239f35b600080fd5b60055460ff8116156103b15760015460025460e052600080526004602052604060002060205260406000206020526040600020546004602052604060002060205260406000206001600052602052604060002054600080526004602052604060002060016000526020526040600020600080526020526040600020546004602052604060002060016000526020526040600020602052604060002054600460205260406000206000805260205260406000206020526040600020546001600052600460205260406000206000805260205260406000206001600052602052604060002054600460205260406000206020526040600020600080526020526040600020546001600052600460205260406000206020526040600020602052604060002054916002600052600460205260406000206000805260205260406000206020526040600020549360026000526004602052604060002060008052602052604060002060016000526020526040600020549560026000526004602052604060002060016000526020526040600020600080526020526040600020549760026000526004602052604060002060016000526020526040600020602052604060002054996003600052600460205260406000206000805260205260406000206020526040600020549b60036000526004602052604060002060008052602052604060002060016000526020526040600020549d600360005260046020526040600020600160005260205260406000206000805260205260406000205460a052600360005260046020526040600020600160005260205260406000206020526040600020546080526f4c554e412f43505453746f72652f763160801b60206040518060c0520152603060c051015260e051605060c0510152607060c0510152609060c051015260b060c051015260d060c051015260f060c051015261011060c051015261013060c051015261015060c051015261017060c051015261019060c05101526101b060c05101526101d060c05101526101f060c051015261021060c051015260a05161023060c0510152608051610250908160c051015260c0515260c051610280810181811060018060401b0382111761039b576040526020815191012060035560ff1916600555565b634e487b7160e01b600052604160045260246000fd5b5056fe6101006040908082526004918236101561001857600080fd5b600091823560e01c90816315f5ea731461069957508063472082c01461067b5780634b7c75041461065d578063686058b0146105435780638da5cb5b1461051c578063c92df57a146104fe578063cf0a50ba146103d6578063d00d6a741461035a578063eced55261461033d578063f2fde38b1461027f5763f396446f1461009f57600080fd5b3461027b578160031936011261027b57805161020080820182811067ffffffffffffffff8211176102685783949294523684376001938454936002918254928785905b610128575b5050506003549380519586526020928387015285019092905b60108210610115576102608686610240820152f35b8351815292820192908601908201610100565b60ff81969496168381101561025f5780855260208481528886208680528152888620815288862054916103fc84861b169281840487148215171561024c57610170848b610819565b5280875285825289872087805282528987208c88528252898720548c84018085116102395761019f908b610819565b528087528582528987208c88528252898720878052825289872054858401808511610239576101ce908b610819565b5286528481528886208b875281528886209052878520549060038101809111610226576101fb9088610819565b5260ff809116908114610213579294928801886100e2565b634e487b7160e01b845260118352602484fd5b634e487b7160e01b865260118552602486fd5b634e487b7160e01b895260118852602489fd5b634e487b7160e01b885260118752602488fd5b509492946100e7565b634e487b7160e01b855260418652602485fd5b5080fd5b508234610339576020366003190112610339576001600160a01b03813581811693919290849003610335578454928316916102bb8333146106e9565b84156102f957505082907f8be0079c531659141344cd1fd0a4f28419497f9722a3daafe3b4186f6b6457e08580a36001600160a01b03191617815580f35b906020606492519162461bcd60e51b8352820152601660248201527543505453746f72653a207a65726f206164647265737360501b6044820152fd5b8480fd5b8280fd5b503461027b578160031936011261027b5760209051620f42408152f35b50823461033957606036600319011261033957602092829161037a6106b4565b6103826106c9565b9160ff808061038f6106d9565b94169461039d848710610735565b16926103ab60028510610781565b16926103b9600285106107cd565b845286528383209083528552828220908252845220549051908152f35b50829034610339576080366003190112610339576103f26106b4565b906103fb6106c9565b906104046106d9565b9260ff80806064359361042160018060a01b038b541633146106e9565b169461042e888710610735565b169461043c60028710610781565b169461044a600287106107cd565b620f424082116104bb57907fe974e82b2e252e584a4104257f5cb7683e26f77380bdcbf06aa0b0bc325d7c9d92918488526020528187208588526020528187208688526020528082882055600160ff1960055416176005556104aa610840565b60035482519182526020820152a480f35b606490602084519162461bcd60e51b8352820152601960248201527f43505453746f72653a2070726f626162696c697479203e2031000000000000006044820152fd5b503461027b578160031936011261027b576020906003549051908152f35b503461027b578160031936011261027b57905490516001600160a01b039091168152602090f35b50823461033957816003193601126103395780356024359161056f60018060a01b0386541633146106e9565b620f424080831161061a5783116105d75750600155600255600160ff19600554161760055561059c610840565b7f2606fb98b4d52780596d61a5aa19c17a7bc48c124e0db4af54f50f8e5c93e01860015491600254926003549382519182526020820152a280f35b606490602085519162461bcd60e51b8352820152601760248201527f43505453746f72653a20505052207072696f72203e20310000000000000000006044820152fd5b845162461bcd60e51b8152602081840152601760248201527f43505453746f72653a20505048207072696f72203e20310000000000000000006044820152606490fd5b503461027b578160031936011261027b576020906001549051908152f35b503461027b578160031936011261027b576020906002549051908152f35b83908534610339578260031936011261033957602092508152f35b6004359060ff821682036106c457565b600080fd5b6024359060ff821682036106c457565b6044359060ff821682036106c457565b156106f057565b60405162461bcd60e51b815260206004820152601d60248201527f43505453746f72653a2063616c6c6572206973206e6f74206f776e65720000006044820152606490fd5b1561073c57565b60405162461bcd60e51b815260206004820152601c60248201527f43505453746f72653a206261642065766964656e636520696e646578000000006044820152606490fd5b1561078857565b60405162461bcd60e51b815260206004820152601760248201527f43505453746f72653a20626164205050482073746174650000000000000000006044820152606490fd5b156107d457565b60405162461bcd60e51b815260206004820152601760248201527f43505453746f72653a20626164205050522073746174650000000000000000006044820152606490fd5b90601081101561082a5760051b0190565b634e487b7160e01b600052603260045260246000fd5b60055460ff811615610ba45760015460025460e052600080526004602052604060002060205260406000206020526040600020546004602052604060002060205260406000206001600052602052604060002054600080526004602052604060002060016000526020526040600020600080526020526040600020546004602052604060002060016000526020526040600020602052604060002054600460205260406000206000805260205260406000206020526040600020546001600052600460205260406000206000805260205260406000206001600052602052604060002054600460205260406000206020526040600020600080526020526040600020546001600052600460205260406000206020526040600020602052604060002054916002600052600460205260406000206000805260205260406000206020526040600020549360026000526004602052604060002060008052602052604060002060016000526020526040600020549560026000526004602052604060002060016000526020526040600020600080526020526040600020549760026000526004602052604060002060016000526020526040600020602052604060002054996003600052600460205260406000206000805260205260406000206020526040600020549b60036000526004602052604060002060008052602052604060002060016000526020526040600020549d600360005260046020526040600020600160005260205260406000206000805260205260406000205460a052600360005260046020526040600020600160005260205260406000206020526040600020546080526f4c554e412f43505453746f72652f763160801b60206040518060c0520152603060c051015260e051605060c0510152607060c0510152609060c051015260b060c051015260d060c051015260f060c051015261011060c051015261013060c051015261015060c051015261017060c051015261019060c05101526101b060c05101526101d060c05101526101f060c051015261021060c051015260a05161023060c0510152608051610250908160c051015260c0515260c051610280810181811067ffffffffffffffff821117610b8e576040526020815191012060035560ff1916600555565b634e487b7160e01b600052604160045260246000fd5b5056fea26469706673582212206cc40b534701a18c4b28ee4845384ab334f630cbd7a0b4f0e497e99563296c6764736f6c63430008110033",
  "immutableReferences": {},
  "source": "// SPDX-License-Identifier: MIT\npragma solidity ^0.8.17;\n\n/// @title  CPTStore\n/// @notice On-chain repository for LUNA Bayesian Network parameters.\n///         Stores priors P(PPH=true) and P(PPR=true), and Conditional\n///         Probability Table (CPT) entries for four binary evidence nodes\n///         (GPS, PC, PMD, PR).  All probabilities are scaled integers\n///         in [0, SCALE].\n///\n/// @dev    Design invariants (referenced in paper Section IV-A):\n///         1. Every parameter write is range-checked: 0 <= p <= SCALE.\n///         2. Every parameter write emits an indexed event, enabling full\n///            reconstruction of BN parameter history from the ledger.\n///         3. Write access is restricted to the contract owner (deployer).\n///         4. A bnInstanceId fingerprint is recomputed lazily (on the first\n///            read after any write), keeping per-write gas O(1) in storage\n///            writes and making initialization cost O(N_e) in SSTORE ops.\n///         5. getCPTSnapshot() returns all 18 parameters + bnInstanceId in\n///            a single call, reducing oracle BN reconstruction to 1 RPC.\n///         6. block.number is available in every transaction receipt;\n///            the oracle records it externally to bind each posterior\n///            submission to the parameter state at reconstruction time.\n\ncontract CPTStore {\n\n    // ----------------------------------------------------------------\n    // Constants\n    // ----------------------------------------------------------------\n\n    /// @notice Global scale factor.  All probabilities p in [0,1] are\n    ///         stored as round(p * SCALE).  Absolute rounding error is\n    ///         bounded by 1 / (2 * SCALE) = 5e-7.\n    uint256 public constant SCALE = 1_000_000;\n\n    /// @notice Number of binary evidence nodes supported.\n    ///         0 = GPS, 1 = PC, 2 = PMD, 3 = PR.\n    uint8 public constant NUM_EVIDENCE = 4;\n\n    // ----------------------------------------------------------------\n    // State\n    // ----------------------------------------------------------------\n\n    /// @notice Contract owner; the only address permitted to write\n    ///         parameters.  Set to msg.sender at deployment.\n    address public owner;\n\n    /// @notice Scaled prior P(PPH = true).\n    ///         PPH and PPR are modeled as marginally independent root\n    ///         nodes; they need not sum to SCALE.  Mutual exclusivity\n    ///         of claim types is enforced at the application layer.\n    uint256 public priorPPH;\n\n    /// @notice Scaled prior P(PPR = true).\n    uint256 public priorPPR;\n\n    /// @notice keccak256 fingerprint of the current parameter state.\n    ///         Recomputed lazily after any write.  The oracle records\n    ///         this value alongside each posterior submission so that\n    ///         auditors can verify which parameter version was active.\n    bytes32 public bnInstanceId;\n\n    /// @dev    CPT storage: evidenceTrueCPT[i][pph][ppr] =\n    ///         P(evidence_i = true | PPH = pph, PPR = ppr), scaled.\n    ///         Indices: i in [0, NUM_EVIDENCE), pph/ppr in {0, 1}.\n    mapping(uint8 =>\n        mapping(uint8 =>\n            mapping(uint8 => uint256))) private evidenceTrueCPT;\n\n    /// @dev    Dirty flag for lazy bnInstanceId recomputation.\n    ///         Set to true on every parameter write; cleared when\n    ///         bnInstanceId is recomputed in _refreshIfDirty().\n    bool private _dirty;\n\n    // ----------------------------------------------------------------\n    // Events\n    // ----------------------------------------------------------------\n\n    /// @notice Emitted when contract ownership is transferred.\n    event OwnershipTransferred(\n        address indexed previousOwner,\n        address indexed newOwner\n    );\n\n    /// @notice Emitted on every prior update.\n    ///         Indexed on bnInstanceId so callers can filter parameter\n    ///         history by snapshot.\n    /// @param  priorPPHScaled   New scaled P(PPH = true).\n    /// @param  priorPPRScaled   New scaled P(PPR = true).\n    /// @param  bnInstanceId     Updated parameter fingerprint.\n    event PriorsUpdated(\n        uint256 priorPPHScaled,\n        uint256 priorPPRScaled,\n        bytes32 indexed bnInstanceId\n    );\n\n    /// @notice Emitted on every CPT entry update.\n    ///         Three indexed fields (EVM topic limit) allow filtering\n    ///         by evidence node and parent configuration.\n    ///         bnInstanceId is stored in event data (not indexed) and\n    ///         is readable via log data scan or getCPTSnapshot().\n    /// @param  evidenceIndex    Evidence node (0=GPS,1=PC,2=PMD,3=PR).\n    /// @param  pphState         Parent PPH state (0 or 1).\n    /// @param  pprState         Parent PPR state (0 or 1).\n    /// @param  pTrueScaled      New scaled P(evidence=true|parents).\n    /// @param  bnInstanceId     Updated parameter fingerprint (data).\n    event EvidenceCPTUpdated(\n        uint8  indexed evidenceIndex,\n        uint8  indexed pphState,\n        uint8  indexed pprState,\n        uint256        pTrueScaled,\n        bytes32        bnInstanceId\n    );\n\n    // ----------------------------------------------------------------\n    // Modifiers\n    // ----------------------------------------------------------------\n\n    modifier onlyOwner() {\n        require(msg.sender == owner, \"CPTStore: caller is not owner\");\n        _;\n    }\n\n    // ----------------------------------------------------------------\n    // Constructor\n    // ----------------------------------------------------------------\n\n    /// @notice Deploys CPTStore.\n    ///         Priors are initialised to neutral values (0.5 / 0.5).\n    ///         Call setPriors() and setEvidenceCPT() after deployment\n    ///         to configure the desired parameter set before any\n    ///         inference submissions are accepted.\n    constructor() {\n        owner = msg.sender;\n        // Neutral priors: P(PPH) = P(PPR) = 0.5\n        // Asymmetric priors are set via setPriors() in the deploy script.\n        priorPPH = 500_000;\n        priorPPR = 500_000;\n        // All CPT entries default to 0 (uninitialised).\n        // setEvidenceCPT() must be called for each entry before use.\n        _dirty = true;\n        _refreshIfDirty();\n    }\n\n    // ----------------------------------------------------------------\n    // Owner administration\n    // ----------------------------------------------------------------\n\n    /// @notice Transfers contract ownership to newOwner.\n    /// @param  newOwner  Address of the new owner.  Must be non-zero.\n    function transferOwnership(address newOwner) external onlyOwner {\n        require(newOwner != address(0), \"CPTStore: zero address\");\n        emit OwnershipTransferred(owner, newOwner);\n        owner = newOwner;\n    }\n\n    // ----------------------------------------------------------------\n    // Parameter writes\n    // ----------------------------------------------------------------\n\n    /// @notice Updates both root-node priors atomically.\n    /// @dev    Each value is independently range-checked.  The two\n    ///         priors need not sum to SCALE; see contract-level note\n    ///         on marginal independence.\n    /// @param  newPriorPPH  Scaled P(PPH = true) in [0, SCALE].\n    /// @param  newPriorPPR  Scaled P(PPR = true) in [0, SCALE].\n    function setPriors(\n        uint256 newPriorPPH,\n        uint256 newPriorPPR\n    ) external onlyOwner {\n        require(newPriorPPH <= SCALE, \"CPTStore: PPH prior > 1\");\n        require(newPriorPPR <= SCALE, \"CPTStore: PPR prior > 1\");\n        priorPPH = newPriorPPH;\n        priorPPR = newPriorPPR;\n        _dirty = true;\n        _refreshIfDirty();\n        emit PriorsUpdated(priorPPH, priorPPR, bnInstanceId);\n    }\n\n    /// @notice Sets one CPT entry:\n    ///         P(evidence_evidenceIndex = true | PPH=pphState, PPR=pprState).\n    /// @dev    Gas cost per call: O(1) SSTOREs (one data slot + dirty flag).\n    ///         bnInstanceId is recomputed once on the subsequent read,\n    ///         keeping initialization cost O(N_e) in SSTORE operations.\n    /// @param  evidenceIndex  Evidence node index in [0, NUM_EVIDENCE).\n    /// @param  pphState       PPH parent state in {0, 1}.\n    /// @param  pprState       PPR parent state in {0, 1}.\n    /// @param  pTrueScaled    Scaled probability in [0, SCALE].\n    function setEvidenceCPT(\n        uint8   evidenceIndex,\n        uint8   pphState,\n        uint8   pprState,\n        uint256 pTrueScaled\n    ) external onlyOwner {\n        require(evidenceIndex < NUM_EVIDENCE, \"CPTStore: bad evidence index\");\n        require(pphState  < 2,               \"CPTStore: bad PPH state\");\n        require(pprState  < 2,               \"CPTStore: bad PPR state\");\n        require(pTrueScaled <= SCALE,        \"CPTStore: probability > 1\");\n\n        evidenceTrueCPT[evidenceIndex][pphState][pprState] = pTrueScaled;\n        _dirty = true;\n        _refreshIfDirty();\n\n        emit EvidenceCPTUpdated(\n            evidenceIndex,\n            pphState,\n            pprState,\n            pTrueScaled,\n            bnInstanceId\n        );\n    }\n\n    // ----------------------------------------------------------------\n    // Parameter reads\n    // ----------------------------------------------------------------\n\n    /// @notice Returns a single CPT entry.\n    /// @param  evidenceIndex  Evidence node index in [0, NUM_EVIDENCE).\n    /// @param  pphState       PPH parent state in {0, 1}.\n    /// @param  pprState       PPR parent state in {0, 1}.\n    /// @return Scaled P(evidence = true | PPH=pphState, PPR=pprState).\n    function getEvidenceTrueCPT(\n        uint8 evidenceIndex,\n        uint8 pphState,\n        uint8 pprState\n    ) external view returns (uint256) {\n        require(evidenceIndex < NUM_EVIDENCE, \"CPTStore: bad evidence index\");\n        require(pphState  < 2,               \"CPTStore: bad PPH state\");\n        require(pprState  < 2,               \"CPTStore: bad PPR state\");\n        return evidenceTrueCPT[evidenceIndex][pphState][pprState];\n    }\n\n    /// @notice Returns all 18 BN parameters and the current bnInstanceId\n    ///         in a single call, reducing off-chain BN reconstruction\n    ///         to one RPC round-trip.\n    ///\n    /// @dev    cpts layout (length 16):\n    ///         cpts[ i*4 + pphState*2 + pprState ]\n    ///           = P(evidence_i = true | PPH=pphState, PPR=pprState)\n    ///         for i in [0, NUM_EVIDENCE), pphState/pprState in {0,1}.\n    ///\n    /// @return pph   Scaled prior P(PPH = true).\n    /// @return ppr   Scaled prior P(PPR = true).\n    /// @return cpts  Flattened CPT array, length NUM_EVIDENCE * 4 = 16.\n    /// @return id    Current bnInstanceId fingerprint.\n    function getCPTSnapshot()\n        external\n        view\n        returns (\n            uint256          pph,\n            uint256          ppr,\n            uint256[16] memory cpts,\n            bytes32          id\n        )\n    {\n        pph = priorPPH;\n        ppr = priorPPR;\n        for (uint8 i = 0; i < NUM_EVIDENCE; i++) {\n            cpts[uint256(i) * 4 + 0] = evidenceTrueCPT[i][0][0];\n            cpts[uint256(i) * 4 + 1] = evidenceTrueCPT[i][0][1];\n            cpts[uint256(i) * 4 + 2] = evidenceTrueCPT[i][1][0];\n            cpts[uint256(i) * 4 + 3] = evidenceTrueCPT[i][1][1];\n        }\n        id = bnInstanceId;\n    }\n\n    // ----------------------------------------------------------------\n    // Internal\n    // ----------------------------------------------------------------\n\n    /// @dev Recomputes bnInstanceId from the full current parameter\n    ///      state and clears the dirty flag.  Called immediately after\n    ///      every write so that bnInstanceId is always current when\n    ///      read by external callers or emitted in events.\n    function _refreshIfDirty() internal {\n        if (!_dirty) return;\n        bnInstanceId = keccak256(abi.encodePacked(\n            \"LUNA/CPTStore/v1\",\n            priorPPH,\n            priorPPR,\n            evidenceTrueCPT[0][0][0], evidenceTrueCPT[0][0][1],\n            evidenceTrueCPT[0][1][0], evidenceTrueCPT[0][1][1],\n            evidenceTrueCPT[1][0][0], evidenceTrueCPT[1][0][1],\n            evidenceTrueCPT[1][1][0], evidenceTrueCPT[1][1][1],\n            evidenceTrueCPT[2][0][0], evidenceTrueCPT[2][0][1],\n            evidenceTrueCPT[2][1][0], evidenceTrueCPT[2][1][1],\n            evidenceTrueCPT[3][0][0], evidenceTrueCPT[3][0][1],\n            evidenceTrueCPT[3][1][0], evidenceTrueCPT[3][1][1]\n        ));\n        _dirty = false;\n    }\n}\n",
  "sourcePath": "C:\\Users\\tariq\\Downloads\\ScalableBN\\contracts\\CPTStore.sol",
  "compiler": {
    "name": "solc",
    "version": "0.8.17+commit.8df45f5f.Emscripten.clang"
  },
  "schemaVersion": "3.4.16",
  "updatedAt": "2026-05-27T02:43:25.471Z",
  "networkType": "ethereum",
  "devdoc": {
    "details": "Design invariants (referenced in paper Section IV-A):         1. Every parameter write is range-checked: 0 <= p <= SCALE.         2. Every parameter write emits an indexed event, enabling full            reconstruction of BN parameter history from the ledger.         3. Write access is restricted to the contract owner (deployer).         4. A bnInstanceId fingerprint is recomputed lazily (on the first            read after any write), keeping per-write gas O(1) in storage            writes and making initialization cost O(N_e) in SSTORE ops.         5. getCPTSnapshot() returns all 18 parameters + bnInstanceId in            a single call, reducing oracle BN reconstruction to 1 RPC.         6. block.number is available in every transaction receipt;            the oracle records it externally to bind each posterior            submission to the parameter state at reconstruction time.",
    "events": {
      "EvidenceCPTUpdated(uint8,uint8,uint8,uint256,bytes32)": {
        "params": {
          "bnInstanceId": "Updated parameter fingerprint (data).",
          "evidenceIndex": "Evidence node (0=GPS,1=PC,2=PMD,3=PR).",
          "pTrueScaled": "New scaled P(evidence=true|parents).",
          "pphState": "Parent PPH state (0 or 1).",
          "pprState": "Parent PPR state (0 or 1)."
        }
      },
      "PriorsUpdated(uint256,uint256,bytes32)": {
        "params": {
          "bnInstanceId": "Updated parameter fingerprint.",
          "priorPPHScaled": "New scaled P(PPH = true).",
          "priorPPRScaled": "New scaled P(PPR = true)."
        }
      }
    },
    "kind": "dev",
    "methods": {
      "getCPTSnapshot()": {
        "details": "cpts layout (length 16):         cpts[ i*4 + pphState*2 + pprState ]           = P(evidence_i = true | PPH=pphState, PPR=pprState)         for i in [0, NUM_EVIDENCE), pphState/pprState in {0,1}.",
        "returns": {
          "cpts": " Flattened CPT array, length NUM_EVIDENCE * 4 = 16.",
          "id": "   Current bnInstanceId fingerprint.",
          "pph": "  Scaled prior P(PPH = true).",
          "ppr": "  Scaled prior P(PPR = true)."
        }
      },
      "getEvidenceTrueCPT(uint8,uint8,uint8)": {
        "params": {
          "evidenceIndex": "Evidence node index in [0, NUM_EVIDENCE).",
          "pphState": "PPH parent state in {0, 1}.",
          "pprState": "PPR parent state in {0, 1}."
        },
        "returns": {
          "_0": "Scaled P(evidence = true | PPH=pphState, PPR=pprState)."
        }
      },
      "setEvidenceCPT(uint8,uint8,uint8,uint256)": {
        "details": "Gas cost per call: O(1) SSTOREs (one data slot + dirty flag).         bnInstanceId is recomputed once on the subsequent read,         keeping initialization cost O(N_e) in SSTORE operations.",
        "params": {
          "evidenceIndex": "Evidence node index in [0, NUM_EVIDENCE).",
          "pTrueScaled": "Scaled probability in [0, SCALE].",
          "pphState": "PPH parent state in {0, 1}.",
          "pprState": "PPR parent state in {0, 1}."
        }
      },
      "setPriors(uint256,uint256)": {
        "details": "Each value is independently range-checked.  The two         priors need not sum to SCALE; see contract-level note         on marginal independence.",
        "params": {
          "newPriorPPH": "Scaled P(PPH = true) in [0, SCALE].",
          "newPriorPPR": "Scaled P(PPR = true) in [0, SCALE]."
        }
      },
      "transferOwnership(address)": {
        "params": {
          "newOwner": "Address of the new owner.  Must be non-zero."
        }
      }
    },
    "stateVariables": {
      "_dirty": {
        "details": "Dirty flag for lazy bnInstanceId recomputation.         Set to true on every parameter write; cleared when         bnInstanceId is recomputed in _refreshIfDirty()."
      },
      "evidenceTrueCPT": {
        "details": "CPT storage: evidenceTrueCPT[i][pph][ppr] =         P(evidence_i = true | PPH = pph, PPR = ppr), scaled.         Indices: i in [0, NUM_EVIDENCE), pph/ppr in {0, 1}."
      }
    },
    "title": "CPTStore",
    "version": 1
  },
  "userdoc": {
    "events": {
      "EvidenceCPTUpdated(uint8,uint8,uint8,uint256,bytes32)": {
        "notice": "Emitted on every CPT entry update.         Three indexed fields (EVM topic limit) allow filtering         by evidence node and parent configuration.         bnInstanceId is stored in event data (not indexed) and         is readable via log data scan or getCPTSnapshot()."
      },
      "OwnershipTransferred(address,address)": {
        "notice": "Emitted when contract ownership is transferred."
      },
      "PriorsUpdated(uint256,uint256,bytes32)": {
        "notice": "Emitted on every prior update.         Indexed on bnInstanceId so callers can filter parameter         history by snapshot."
      }
    },
    "kind": "user",
    "methods": {
      "NUM_EVIDENCE()": {
        "notice": "Number of binary evidence nodes supported.         0 = GPS, 1 = PC, 2 = PMD, 3 = PR."
      },
      "SCALE()": {
        "notice": "Global scale factor.  All probabilities p in [0,1] are         stored as round(p * SCALE).  Absolute rounding error is         bounded by 1 / (2 * SCALE) = 5e-7."
      },
      "bnInstanceId()": {
        "notice": "keccak256 fingerprint of the current parameter state.         Recomputed lazily after any write.  The oracle records         this value alongside each posterior submission so that         auditors can verify which parameter version was active."
      },
      "constructor": {
        "notice": "Deploys CPTStore.         Priors are initialised to neutral values (0.5 / 0.5).         Call setPriors() and setEvidenceCPT() after deployment         to configure the desired parameter set before any         inference submissions are accepted."
      },
      "getCPTSnapshot()": {
        "notice": "Returns all 18 BN parameters and the current bnInstanceId         in a single call, reducing off-chain BN reconstruction         to one RPC round-trip."
      },
      "getEvidenceTrueCPT(uint8,uint8,uint8)": {
        "notice": "Returns a single CPT entry."
      },
      "owner()": {
        "notice": "Contract owner; the only address permitted to write         parameters.  Set to msg.sender at deployment."
      },
      "priorPPH()": {
        "notice": "Scaled prior P(PPH = true).         PPH and PPR are modeled as marginally independent root         nodes; they need not sum to SCALE.  Mutual exclusivity         of claim types is enforced at the application layer."
      },
      "priorPPR()": {
        "notice": "Scaled prior P(PPR = true)."
      },
      "setEvidenceCPT(uint8,uint8,uint8,uint256)": {
        "notice": "Sets one CPT entry:         P(evidence_evidenceIndex = true | PPH=pphState, PPR=pprState)."
      },
      "setPriors(uint256,uint256)": {
        "notice": "Updates both root-node priors atomically."
      },
      "transferOwnership(address)": {
        "notice": "Transfers contract ownership to newOwner."
      }
    },
    "notice": "On-chain repository for LUNA Bayesian Network parameters.         Stores priors P(PPH=true) and P(PPR=true), and Conditional         Probability Table (CPT) entries for four binary evidence nodes         (GPS, PC, PMD, PR).  All probabilities are scaled integers         in [0, SCALE].",
    "version": 1
  }
}