{
  "contractName": "OracleController",
  "abi": [
    {
      "inputs": [
        {
          "internalType": "address",
          "name": "claimRegistry_",
          "type": "address"
        },
        {
          "internalType": "address",
          "name": "evidenceRegistry_",
          "type": "address"
        },
        {
          "internalType": "address",
          "name": "cptStore_",
          "type": "address"
        },
        {
          "internalType": "address",
          "name": "oracleOperator_",
          "type": "address"
        }
      ],
      "stateMutability": "nonpayable",
      "type": "constructor"
    },
    {
      "anonymous": false,
      "inputs": [
        {
          "indexed": true,
          "internalType": "uint256",
          "name": "claimId",
          "type": "uint256"
        },
        {
          "indexed": true,
          "internalType": "address",
          "name": "caller",
          "type": "address"
        },
        {
          "indexed": false,
          "internalType": "uint256",
          "name": "blockNumber",
          "type": "uint256"
        }
      ],
      "name": "ClaimFinalizedThroughController",
      "type": "event"
    },
    {
      "anonymous": false,
      "inputs": [
        {
          "indexed": true,
          "internalType": "uint256",
          "name": "claimId",
          "type": "uint256"
        },
        {
          "indexed": true,
          "internalType": "bytes32",
          "name": "externalKey",
          "type": "bytes32"
        },
        {
          "indexed": true,
          "internalType": "address",
          "name": "opener",
          "type": "address"
        },
        {
          "indexed": false,
          "internalType": "uint256",
          "name": "blockNumber",
          "type": "uint256"
        }
      ],
      "name": "ClaimOpenedThroughController",
      "type": "event"
    },
    {
      "anonymous": false,
      "inputs": [
        {
          "indexed": true,
          "internalType": "uint256",
          "name": "claimId",
          "type": "uint256"
        },
        {
          "indexed": true,
          "internalType": "uint256",
          "name": "evidenceId",
          "type": "uint256"
        },
        {
          "indexed": true,
          "internalType": "address",
          "name": "operator",
          "type": "address"
        },
        {
          "indexed": false,
          "internalType": "uint8",
          "name": "gps",
          "type": "uint8"
        },
        {
          "indexed": false,
          "internalType": "uint8",
          "name": "pc",
          "type": "uint8"
        },
        {
          "indexed": false,
          "internalType": "uint8",
          "name": "pmd",
          "type": "uint8"
        },
        {
          "indexed": false,
          "internalType": "uint8",
          "name": "pr",
          "type": "uint8"
        },
        {
          "indexed": false,
          "internalType": "uint256",
          "name": "posteriorPPH",
          "type": "uint256"
        },
        {
          "indexed": false,
          "internalType": "uint256",
          "name": "posteriorPPR",
          "type": "uint256"
        },
        {
          "indexed": false,
          "internalType": "bytes32",
          "name": "bnInstanceId",
          "type": "bytes32"
        },
        {
          "indexed": false,
          "internalType": "uint256",
          "name": "blockNumber",
          "type": "uint256"
        }
      ],
      "name": "InferenceSubmitted",
      "type": "event"
    },
    {
      "anonymous": false,
      "inputs": [
        {
          "indexed": true,
          "internalType": "address",
          "name": "previousOperator",
          "type": "address"
        },
        {
          "indexed": true,
          "internalType": "address",
          "name": "newOperator",
          "type": "address"
        }
      ],
      "name": "OracleOperatorUpdated",
      "type": "event"
    },
    {
      "inputs": [
        {
          "internalType": "uint256",
          "name": "",
          "type": "uint256"
        }
      ],
      "name": "claimOpener",
      "outputs": [
        {
          "internalType": "address",
          "name": "",
          "type": "address"
        }
      ],
      "stateMutability": "view",
      "type": "function",
      "constant": true
    },
    {
      "inputs": [],
      "name": "claimRegistry",
      "outputs": [
        {
          "internalType": "contract IClaimRegistry",
          "name": "",
          "type": "address"
        }
      ],
      "stateMutability": "view",
      "type": "function",
      "constant": true
    },
    {
      "inputs": [],
      "name": "cptStore",
      "outputs": [
        {
          "internalType": "contract ICPTStore",
          "name": "",
          "type": "address"
        }
      ],
      "stateMutability": "view",
      "type": "function",
      "constant": true
    },
    {
      "inputs": [],
      "name": "evidenceRegistry",
      "outputs": [
        {
          "internalType": "contract IEvidenceRegistry",
          "name": "",
          "type": "address"
        }
      ],
      "stateMutability": "view",
      "type": "function",
      "constant": true
    },
    {
      "inputs": [],
      "name": "oracleOperator",
      "outputs": [
        {
          "internalType": "address",
          "name": "",
          "type": "address"
        }
      ],
      "stateMutability": "view",
      "type": "function",
      "constant": true
    },
    {
      "inputs": [],
      "name": "owner",
      "outputs": [
        {
          "internalType": "address",
          "name": "",
          "type": "address"
        }
      ],
      "stateMutability": "view",
      "type": "function",
      "constant": true
    },
    {
      "inputs": [
        {
          "internalType": "address",
          "name": "newOperator",
          "type": "address"
        }
      ],
      "name": "setOracleOperator",
      "outputs": [],
      "stateMutability": "nonpayable",
      "type": "function"
    },
    {
      "inputs": [
        {
          "internalType": "bytes32",
          "name": "externalKey",
          "type": "bytes32"
        }
      ],
      "name": "openClaim",
      "outputs": [
        {
          "internalType": "uint256",
          "name": "claimId",
          "type": "uint256"
        }
      ],
      "stateMutability": "nonpayable",
      "type": "function"
    },
    {
      "inputs": [
        {
          "internalType": "bytes32",
          "name": "externalKey",
          "type": "bytes32"
        }
      ],
      "name": "openOrResolveClaim",
      "outputs": [
        {
          "internalType": "uint256",
          "name": "claimId",
          "type": "uint256"
        },
        {
          "internalType": "bool",
          "name": "created",
          "type": "bool"
        }
      ],
      "stateMutability": "nonpayable",
      "type": "function"
    },
    {
      "inputs": [
        {
          "internalType": "uint256",
          "name": "claimId",
          "type": "uint256"
        }
      ],
      "name": "finalizeClaim",
      "outputs": [],
      "stateMutability": "nonpayable",
      "type": "function"
    },
    {
      "inputs": [
        {
          "internalType": "uint256",
          "name": "claimId",
          "type": "uint256"
        },
        {
          "internalType": "uint8",
          "name": "gps",
          "type": "uint8"
        },
        {
          "internalType": "uint8",
          "name": "pc",
          "type": "uint8"
        },
        {
          "internalType": "uint8",
          "name": "pmd",
          "type": "uint8"
        },
        {
          "internalType": "uint8",
          "name": "pr",
          "type": "uint8"
        },
        {
          "internalType": "uint256",
          "name": "posteriorPPH",
          "type": "uint256"
        },
        {
          "internalType": "uint256",
          "name": "posteriorPPR",
          "type": "uint256"
        },
        {
          "internalType": "bytes32",
          "name": "expectedBnInstanceId",
          "type": "bytes32"
        }
      ],
      "name": "submitInference",
      "outputs": [
        {
          "internalType": "uint256",
          "name": "evidenceId",
          "type": "uint256"
        }
      ],
      "stateMutability": "nonpayable",
      "type": "function"
    }
  ],
  "bytecode": "0x60e060409080825234620003ad57608081620011f48038038091620000258285620003b2565b833981010312620003ad576200003b81620003ec565b906020916200004c838301620003ec565b6200006760606200005f878601620003ec565b9401620003ec565b6001600160a01b039283169182156200035d57831693841562000309578316908115620002c5578316938415620002725760018060a01b031994600095338188541617875560015416176001558260805260a05260c0528451918483600481637676aa9360e11b958682525afa928315620002685790859185946200022d575b5060c0511691600487518094819382525afa92831562000222578093620001e7575b50500362000173575051610df290816200040282396080518181816101f5015281816102c5015281816104dd0152818161053801528181610a260152610c3a015260a05181818161023a01526105c8015260c051818181610409015281816104990152610b560152f35b60a491519062461bcd60e51b82526004820152604360248201527f4f7261636c65436f6e74726f6c6c65723a205343414c45206d69736d6174636860448201527f206265747765656e20436c61696d526567697374727920616e642043505453746064820152626f726560e81b6084820152fd5b909192508382813d83116200021a575b620002038183620003b2565b810103126200021757505190388062000109565b80fd5b503d620001f7565b8551903d90823e3d90fd5b8281939295503d831162000260575b620002488183620003b2565b810103126200025c578490519238620000e7565b8380fd5b503d6200023c565b86513d86823e3d90fd5b865162461bcd60e51b815260048101879052602660248201527f4f7261636c65436f6e74726f6c6c65723a207a65726f206f7261636c65206f7060448201526532b930ba37b960d11b6064820152608490fd5b865162461bcd60e51b815260048101879052601f60248201527f4f7261636c65436f6e74726f6c6c65723a207a65726f2043505453746f7265006044820152606490fd5b865162461bcd60e51b815260048101879052602760248201527f4f7261636c65436f6e74726f6c6c65723a207a65726f2045766964656e6365526044820152666567697374727960c81b6064820152608490fd5b865162461bcd60e51b8152600481018790526024808201527f4f7261636c65436f6e74726f6c6c65723a207a65726f20436c61696d526567696044820152637374727960e01b6064820152608490fd5b600080fd5b601f909101601f19168101906001600160401b03821190821017620003d657604052565b634e487b7160e01b600052604160045260246000fd5b51906001600160a01b0382168203620003ad5756fe608080604052600436101561001357600080fd5b600090813560e01c90816311679ef714610bb25750806327344e9814610b8557806356fa34e214610b405780637a971114146109e35780637b324c15146103975780638a84bfd0146102905780638da5cb5b1461026957806395272e6d14610224578063a878e156146101df578063ae2ad111146100cf5763bbfabbbe1461009a57600080fd5b346100cc5760203660031901126100cc57602090600435815260028252604060018060a01b0391205416604051908152f35b80fd5b50346100cc5760203660031901126100cc576004356001600160a01b03818116918290036101db5780835416330361018857811561014357816001549182167f0d524ae7730daeded4d014c966316619868a367b212fe9df331009e8864695788580a36001600160a01b0319161760015580f35b60405162461bcd60e51b815260206004820152601f60248201527f4f7261636c65436f6e74726f6c6c65723a207a65726f206f70657261746f72006044820152606490fd5b60405162461bcd60e51b815260206004820152602560248201527f4f7261636c65436f6e74726f6c6c65723a2063616c6c6572206973206e6f742060448201526437bbb732b960d91b6064820152608490fd5b8280fd5b50346100cc57806003193601126100cc576040517f00000000000000000000000000000000000000000000000000000000000000006001600160a01b03168152602090f35b50346100cc57806003193601126100cc576040517f00000000000000000000000000000000000000000000000000000000000000006001600160a01b03168152602090f35b50346100cc57806003193601126100cc57546040516001600160a01b039091168152602090f35b50346100cc57602090816003193601126100cc576040516308a84bfd60e41b81526004803590820181905290918383602481847f00000000000000000000000000000000000000000000000000000000000000006001600160a01b03165af192831561038a578193610355575b508083604092526002855220336bffffffffffffffffffffffff60a01b82541617905560405190438252827f6deb2261f79766d378bd83b4daf1b1843668c6452bb83fde3fb9420c8a96245f853394a4604051908152f35b9092508381813d8311610383575b61036d8183610c01565b8101031261037e57519160406102fd565b600080fd5b503d610363565b50604051903d90823e3d90fd5b50346100cc576101003660031901126100cc576024359060ff8216820361037e576044359160ff8316830361037e576064359260ff8416840361037e576084359360ff8516850361037e576001546001600160a01b0316330361098657604051637676aa9360e11b81526020816004817f00000000000000000000000000000000000000000000000000000000000000006001600160a01b03165afa908115610781578591610954575b50600260ff8516101561090f57600260ff841610156108ca57600260ff8316101561088557600260ff87161015610840578060a435116107e65760c4351161078c57604051636496fabd60e11b8152916020836004817f00000000000000000000000000000000000000000000000000000000000000006001600160a01b03165afa92831561078157859361074d575b5060e43583036106d7577f00000000000000000000000000000000000000000000000000000000000000006001600160a01b03163b156106c85760405163c695784560e01b8152600480359082015260a435602482015260c43560448201528581606481837f00000000000000000000000000000000000000000000000000000000000000006001600160a01b03165af180156106cc579086916106b4575b5050604051631ec1b42560e21b8152600480359082015260ff8581166024830152828116604483015283811660648301528716608482015260a480359082015260c48035908201523360e482015260208161010481897f00000000000000000000000000000000000000000000000000000000000000006001600160a01b03165af19586156106a85795610671575b509460ff8092816020988160405198168852168887015216604085015216606083015260a435608083015260c43560a083015260c08201524360e08201528133917fa4f8d03ec4379f86b5ae733cf22eb455920cb195b73110cbc24528ff8115f41c61010060043592a4604051908152f35b959094506020863d6020116106a0575b8161068e60209383610c01565b8101031261037e5794519360ff6105ff565b3d9150610681565b604051903d90823e3d90fd5b6106bd90610bd7565b6106c8578438610570565b8480fd5b6040513d88823e3d90fd5b60405162461bcd60e51b815260206004820152604260248201527f4f7261636c65436f6e74726f6c6c65723a207374616c6520424e20736e61707360448201527f686f7420202d2043505453746f726520706172616d6574657273206368616e67606482015261195960f21b608482015260a490fd5b9092506020813d602011610779575b8161076960209383610c01565b810103126106c8575191386104d1565b3d915061075c565b6040513d87823e3d90fd5b60405162461bcd60e51b815260206004820152602c60248201527f4f7261636c65436f6e74726f6c6c65723a20706f73746572696f72505052206560448201526b786365656473205343414c4560a01b6064820152608490fd5b60405162461bcd60e51b815260206004820152602c60248201527f4f7261636c65436f6e74726f6c6c65723a20706f73746572696f72505048206560448201526b786365656473205343414c4560a01b6064820152608490fd5b60405162461bcd60e51b815260206004820152601860248201527f4f7261636c65436f6e74726f6c6c65723a2062616420707200000000000000006044820152606490fd5b60405162461bcd60e51b815260206004820152601960248201527f4f7261636c65436f6e74726f6c6c65723a2062616420706d64000000000000006044820152606490fd5b60405162461bcd60e51b815260206004820152601860248201527f4f7261636c65436f6e74726f6c6c65723a2062616420706300000000000000006044820152606490fd5b60405162461bcd60e51b815260206004820152601960248201527f4f7261636c65436f6e74726f6c6c65723a2062616420677073000000000000006044820152606490fd5b90506020813d60201161097e575b8161096f60209383610c01565b8101031261037e575138610441565b3d9150610962565b60405162461bcd60e51b815260206004820152602f60248201527f4f7261636c65436f6e74726f6c6c65723a2063616c6c6572206973206e6f742060448201526e37b930b1b6329037b832b930ba37b960891b6064820152608490fd5b50346100cc5760203660031901126100cc5760043590818152600260205260018060a01b038060408320541633148015610b33575b8015610b27575b15610ac6577f000000000000000000000000000000000000000000000000000000000000000016803b15610ac257818091602460405180948193631ea5c44560e21b83528860048401525af18015610ab757610aa8575b5090604051904382527f245937ab331fd7462bbbe86b85d6194f2f19a58abd0eccd2281ad2ddfc7169e460203393a380f35b610ab190610bd7565b38610a76565b6040513d84823e3d90fd5b5080fd5b60405162461bcd60e51b815260206004820152603360248201527f4f7261636c65436f6e74726f6c6c65723a2063616c6c65722063616e6e6f742060448201527266696e616c697a65207468697320636c61696d60681b6064820152608490fd5b50808254163314610a1f565b5080600154163314610a18565b50346100cc57806003193601126100cc576040517f00000000000000000000000000000000000000000000000000000000000000006001600160a01b03168152602090f35b50346100cc5760203660031901126100cc576040610ba4600435610c23565b825191825215156020820152f35b905034610ac25781600319360112610ac2576001546001600160a01b03168152602090f35b67ffffffffffffffff8111610beb57604052565b634e487b7160e01b600052604160045260246000fd5b90601f8019910116810190811067ffffffffffffffff821117610beb57604052565b6040805163101accbf60e01b8152600481018390527f00000000000000000000000000000000000000000000000000000000000000006001600160a01b0316939291908181602481885afa8015610db1576000918291610d72575b50610d685750908160009251946308a84bfd60e41b86528260048701528560248160209687945af1948515610d5d57600095610d0c575b50937f6deb2261f79766d378bd83b4daf1b1843668c6452bb83fde3fb9420c8a96245f819495826000526002855280600020336bffffffffffffffffffffffff60a01b82541617905551934385523394a490600190565b8381813d8311610d56575b610d218183610c01565b81010312610d52575194507f6deb2261f79766d378bd83b4daf1b1843668c6452bb83fde3fb9420c8a96245f610cb5565b8580fd5b503d610d17565b50513d6000823e3d90fd5b9350600092915050565b90508281813d8311610daa575b610d898183610c01565b81010312610ac257602081519101519182151583036100cc57509038610c7e565b503d610d7f565b82513d6000823e3d90fdfea26469706673582212208746902532c7e650033cbc91fc2ff0a09f38f140a0dd09c74b8aa45aede3366864736f6c63430008110033",
  "immutableReferences": {
    "1333": [
      {
        "length": 32,
        "start": 501
      },
      {
        "length": 32,
        "start": 709
      },
      {
        "length": 32,
        "start": 1245
      },
      {
        "length": 32,
        "start": 1336
      },
      {
        "length": 32,
        "start": 2598
      },
      {
        "length": 32,
        "start": 3130
      }
    ],
    "1337": [
      {
        "length": 32,
        "start": 570
      },
      {
        "length": 32,
        "start": 1480
      }
    ],
    "1341": [
      {
        "length": 32,
        "start": 1033
      },
      {
        "length": 32,
        "start": 1177
      },
      {
        "length": 32,
        "start": 2902
      }
    ]
  },
  "source": "// SPDX-License-Identifier: MIT\npragma solidity ^0.8.17;\n\n/// -----------------------------------------------------------------------\n/// Interfaces\n/// -----------------------------------------------------------------------\n\n/// @notice Subset of CPTStore surface used by OracleController.\n///         The oracle calls getCPTSnapshot() directly via web3 off-chain;\n///         OracleController only needs SCALE() and bnInstanceId() on-chain\n///         to enforce snapshot consistency at submission time.\ninterface ICPTStore {\n    function SCALE()        external view returns (uint256);\n    function bnInstanceId() external view returns (bytes32);\n    /// @notice Returns all 18 BN parameters in one call.\n    ///         Used by the off-chain oracle for BN reconstruction.\n    ///         Declared here for interface completeness; not called\n    ///         on-chain (would add gas proportional to BN size).\n    function getCPTSnapshot()\n        external\n        view\n        returns (\n            uint256          pph,\n            uint256          ppr,\n            uint256[16] memory cpts,\n            bytes32          id\n        );\n}\n\ninterface IClaimRegistry {\n    function SCALE()       external view returns (uint256);\n    function openClaim(bytes32 externalKey)\n        external returns (uint256 claimId);\n    function updatePosterior(\n        uint256 claimId,\n        uint256 posteriorPPH,\n        uint256 posteriorPPR\n    ) external;\n    function finalizeClaim(uint256 claimId) external;\n    function resolveKey(bytes32 externalKey)\n        external view returns (uint256 claimId, bool found);\n}\n\ninterface IEvidenceRegistry {\n    function recordEvidence(\n        uint256 claimId,\n        uint8   gps,\n        uint8   pc,\n        uint8   pmd,\n        uint8   pr,\n        uint256 posteriorPPH,\n        uint256 posteriorPPR,\n        address submitter\n    ) external returns (uint256 evidenceId);\n}\n\n/// -----------------------------------------------------------------------\n/// OracleController\n/// -----------------------------------------------------------------------\n\n/// @title  OracleController\n/// @notice Sole on-chain entry point for all LUNA claim and inference\n///         operations.  ClaimRegistry and EvidenceRegistry accept writes\n///         only from this contract.\n///\n/// @dev    Paper-aligned design invariants (Sections III-E and IV-A):\n///\n///         1. Single authorised entry point.\n///            openClaim(), submitInference(), and finalizeClaim() are\n///            the only public paths that mutate ClaimRegistry or\n///            EvidenceRegistry.\n///\n///         2. submitInference() is restricted to onlyOracleOperator.\n///            openClaim() and finalizeClaim() are intentionally open\n///            to any caller for the current single-operator prototype,\n///            matching the paper's description of application-initiated\n///            claim management.  In a production deployment these\n///            should be gated by an authorizedApp role.\n///\n///         3. BN snapshot consistency.\n///            submitInference() requires the caller to supply the\n///            expectedBnInstanceId it observed when reconstructing the\n///            BN from CPTStore.  The contract verifies this matches\n///            the current CPTStore.bnInstanceId(), rejecting stale\n///            submissions and providing the stale-parameter mitigation\n///            described in the paper's threat model (Section III-B).\n///\n///         4. Gas independence from BN size.\n///            No on-chain function traverses CPT entries or performs\n///            probabilistic arithmetic.  submitInference() performs a\n///            fixed number of SSTORE and LOG operations regardless of\n///            BN size, satisfying the O(1) per-query gas claim.\n///\n///         5. Trusted-contract reentrancy.\n///            submitInference() calls two external contracts\n///            (claimRegistry then evidenceRegistry).  Both are\n///            deployed by the same owner with no ETH transfers and no\n///            callbacks into OracleController; the Checks-Effects-\n///            Interactions pattern is satisfied (all checks precede\n///            both calls, and neither callee can re-enter a state-\n///            modifying path).  A ReentrancyGuard is therefore not\n///            required, but this is explicitly documented here.\n///\n///         6. Immutable contract references.\n///            claimRegistry, evidenceRegistry, and cptStore are set\n///            in the constructor and declared immutable, preventing\n///            post-deployment substitution attacks.\n\ncontract OracleController {\n\n    // ----------------------------------------------------------------\n    // Roles\n    // ----------------------------------------------------------------\n\n    /// @notice Deployer; may update oracleOperator and nothing else.\n    address public owner;\n\n    /// @notice Address of the off-chain oracle operator.\n    ///         Only this address may call submitInference().\n    address public oracleOperator;\n\n    // ----------------------------------------------------------------\n    // Linked contracts (immutable)\n    // ----------------------------------------------------------------\n\n    /// @notice ClaimRegistry contract reference.\n    IClaimRegistry    public immutable claimRegistry;\n\n    /// @notice EvidenceRegistry contract reference.\n    IEvidenceRegistry public immutable evidenceRegistry;\n\n    /// @notice CPTStore contract reference.\n    ICPTStore         public immutable cptStore;\n\n    // ----------------------------------------------------------------\n    // Local state\n    // ----------------------------------------------------------------\n\n    /// @notice claimId => address that opened the claim.\n    ///         Used in finalizeClaim() to allow openers to finalize\n    ///         their own claims without oracle involvement.\n    mapping(uint256 => address) public claimOpener;\n\n    // ----------------------------------------------------------------\n    // Events\n    // ----------------------------------------------------------------\n\n    /// @notice Emitted when the oracle operator is updated.\n    event OracleOperatorUpdated(\n        address indexed previousOperator,\n        address indexed newOperator\n    );\n\n    /// @notice Emitted when a claim is opened through this controller.\n    ///         opener is the msg.sender; for auditing which application\n    ///         or user initiated the claim.\n    event ClaimOpenedThroughController(\n        uint256 indexed claimId,\n        bytes32 indexed externalKey,\n        address indexed opener,\n        uint256         blockNumber\n    );\n\n    /// @notice Emitted on every successful inference submission.\n    ///         claimId, evidenceId, operator are indexed (EVM 3-topic\n    ///         limit); all other fields are in event data.\n    ///         bnInstanceId links the posterior to the exact CPTStore\n    ///         parameter snapshot used for off-chain inference.\n    event InferenceSubmitted(\n        uint256 indexed claimId,\n        uint256 indexed evidenceId,\n        address indexed operator,\n        uint8           gps,\n        uint8           pc,\n        uint8           pmd,\n        uint8           pr,\n        uint256         posteriorPPH,\n        uint256         posteriorPPR,\n        bytes32         bnInstanceId,\n        uint256         blockNumber\n    );\n\n    /// @notice Emitted when a claim is finalized through this controller.\n    event ClaimFinalizedThroughController(\n        uint256 indexed claimId,\n        address indexed caller,\n        uint256         blockNumber\n    );\n\n    // ----------------------------------------------------------------\n    // Modifiers\n    // ----------------------------------------------------------------\n\n    modifier onlyOwner() {\n        require(\n            msg.sender == owner,\n            \"OracleController: caller is not owner\"\n        );\n        _;\n    }\n\n    modifier onlyOracleOperator() {\n        require(\n            msg.sender == oracleOperator,\n            \"OracleController: caller is not oracle operator\"\n        );\n        _;\n    }\n\n    // ----------------------------------------------------------------\n    // Constructor\n    // ----------------------------------------------------------------\n\n    /// @notice Deploys OracleController and binds all peer contracts.\n    /// @dev    A SCALE consistency check ensures CPTStore and\n    ///         ClaimRegistry share the same fixed-point base, preventing\n    ///         silent precision mismatches between contracts.\n    /// @param  claimRegistry_    Address of the deployed ClaimRegistry.\n    /// @param  evidenceRegistry_ Address of the deployed EvidenceRegistry.\n    /// @param  cptStore_         Address of the deployed CPTStore.\n    /// @param  oracleOperator_   Initial oracle operator address.\n    constructor(\n        address claimRegistry_,\n        address evidenceRegistry_,\n        address cptStore_,\n        address oracleOperator_\n    ) {\n        require(\n            claimRegistry_ != address(0),\n            \"OracleController: zero ClaimRegistry\"\n        );\n        require(\n            evidenceRegistry_ != address(0),\n            \"OracleController: zero EvidenceRegistry\"\n        );\n        require(\n            cptStore_ != address(0),\n            \"OracleController: zero CPTStore\"\n        );\n        require(\n            oracleOperator_ != address(0),\n            \"OracleController: zero oracle operator\"\n        );\n\n        owner          = msg.sender;\n        oracleOperator = oracleOperator_;\n\n        claimRegistry    = IClaimRegistry(claimRegistry_);\n        evidenceRegistry = IEvidenceRegistry(evidenceRegistry_);\n        cptStore         = ICPTStore(cptStore_);\n\n        require(\n            claimRegistry.SCALE() == cptStore.SCALE(),\n            \"OracleController: SCALE mismatch between ClaimRegistry and CPTStore\"\n        );\n    }\n\n    // ----------------------------------------------------------------\n    // Administration\n    // ----------------------------------------------------------------\n\n    /// @notice Updates the oracle operator address.\n    /// @param  newOperator  Must be non-zero.\n    function setOracleOperator(address newOperator) external onlyOwner {\n        require(\n            newOperator != address(0),\n            \"OracleController: zero operator\"\n        );\n        emit OracleOperatorUpdated(oracleOperator, newOperator);\n        oracleOperator = newOperator;\n    }\n\n    // ----------------------------------------------------------------\n    // Claim lifecycle entry points\n    // ----------------------------------------------------------------\n\n    /// @notice Opens a new claim on behalf of an application.\n    /// @dev    Any address may call this in the current single-operator\n    ///         prototype.  The caller's address is recorded in\n    ///         claimOpener so they can later finalize their own claim.\n    ///         externalKey uniqueness is enforced by ClaimRegistry.\n    /// @param  externalKey  keccak256(visit metadata).  Must be unique.\n    /// @return claimId      Newly allocated on-chain claim identifier.\n    function openClaim(bytes32 externalKey)\n        external\n        returns (uint256 claimId)\n    {\n        claimId = claimRegistry.openClaim(externalKey);\n        claimOpener[claimId] = msg.sender;\n\n        emit ClaimOpenedThroughController(\n            claimId,\n            externalKey,\n            msg.sender,\n            block.number\n        );\n    }\n\n    /// @notice Opens a claim only if no claim exists for externalKey;\n    ///         otherwise returns the existing claimId.\n    /// @dev    Idempotent helper that prevents duplicate-open errors\n    ///         in workflows where open and submit may be called in the\n    ///         same pipeline step.\n    /// @param  externalKey  keccak256(visit metadata).\n    /// @return claimId      Existing or newly allocated claim identifier.\n    /// @return created      True iff a new claim was created.\n    function openOrResolveClaim(bytes32 externalKey)\n        external\n        returns (uint256 claimId, bool created)\n    {\n        (uint256 existingId, bool found) = claimRegistry.resolveKey(externalKey);\n        if (found) {\n            return (existingId, false);\n        }\n\n        claimId = claimRegistry.openClaim(externalKey);\n        claimOpener[claimId] = msg.sender;\n\n        emit ClaimOpenedThroughController(\n            claimId,\n            externalKey,\n            msg.sender,\n            block.number\n        );\n\n        return (claimId, true);\n    }\n\n    /// @notice Finalizes a claim, preventing further posterior updates.\n    /// @dev    Permitted callers:\n    ///           - the address that originally opened the claim,\n    ///           - the oracle operator,\n    ///           - the contract owner.\n    ///         This matches the paper's description of an\n    ///         'application-defined completion condition' while also\n    ///         allowing the oracle to finalize if the application\n    ///         does not.\n    /// @param  claimId  Internal claim identifier.\n    function finalizeClaim(uint256 claimId) external {\n        require(\n            msg.sender == claimOpener[claimId] ||\n            msg.sender == oracleOperator        ||\n            msg.sender == owner,\n            \"OracleController: caller cannot finalize this claim\"\n        );\n\n        claimRegistry.finalizeClaim(claimId);\n\n        emit ClaimFinalizedThroughController(\n            claimId,\n            msg.sender,\n            block.number\n        );\n    }\n\n    // ----------------------------------------------------------------\n    // Inference submission\n    // ----------------------------------------------------------------\n\n    /// @notice Submits a BN inference result for an open claim.\n    ///\n    /// @dev    Execution path (all O(1) in BN size):\n    ///           1. Validate evidence bits and posterior bounds.\n    ///           2. Verify BN snapshot has not changed since off-chain\n    ///              reconstruction (stale-parameter mitigation).\n    ///           3. Update latest posterior in ClaimRegistry (SSTORE).\n    ///           4. Append immutable record to EvidenceRegistry (SSTORE + LOG).\n    ///           5. Emit InferenceSubmitted event.\n    ///\n    ///         No CPT entries are read or traversed on-chain.\n    ///         Per-query gas is therefore independent of BN size.\n    ///\n    ///         Reentrancy: claimRegistry and evidenceRegistry are\n    ///         owner-deployed contracts with no ETH transfers and no\n    ///         callbacks into OracleController.  CEI is satisfied;\n    ///         a ReentrancyGuard is not required (see contract NatDoc).\n    ///\n    /// @param  claimId               Internal claim identifier.\n    /// @param  gps                   GPS evidence bit in {0, 1}.\n    /// @param  pc                    Patient confirmation bit in {0, 1}.\n    /// @param  pmd                   Physician device log bit in {0, 1}.\n    /// @param  pr                    Prescription evidence bit in {0, 1}.\n    /// @param  posteriorPPH          Scaled P(PPH=true|e) in [0, SCALE].\n    /// @param  posteriorPPR          Scaled P(PPR=true|e) in [0, SCALE].\n    /// @param  expectedBnInstanceId  bnInstanceId read from CPTStore at\n    ///                               off-chain BN reconstruction time.\n    ///                               Submission reverts if CPTStore\n    ///                               parameters changed since then.\n    /// @return evidenceId            Monotonic record id in EvidenceRegistry.\n    function submitInference(\n        uint256 claimId,\n        uint8   gps,\n        uint8   pc,\n        uint8   pmd,\n        uint8   pr,\n        uint256 posteriorPPH,\n        uint256 posteriorPPR,\n        bytes32 expectedBnInstanceId\n    ) external onlyOracleOperator returns (uint256 evidenceId) {\n\n        // --- Checks ---\n        uint256 scale = cptStore.SCALE();\n\n        require(gps < 2, \"OracleController: bad gps\");\n        require(pc  < 2, \"OracleController: bad pc\");\n        require(pmd < 2, \"OracleController: bad pmd\");\n        require(pr  < 2, \"OracleController: bad pr\");\n        require(\n            posteriorPPH <= scale,\n            \"OracleController: posteriorPPH exceeds SCALE\"\n        );\n        require(\n            posteriorPPR <= scale,\n            \"OracleController: posteriorPPR exceeds SCALE\"\n        );\n\n        bytes32 currentBnInstanceId = cptStore.bnInstanceId();\n        require(\n            currentBnInstanceId == expectedBnInstanceId,\n            \"OracleController: stale BN snapshot  - CPTStore parameters changed\"\n        );\n\n        // --- Interactions (trusted contracts, no ETH, no callbacks) ---\n\n        claimRegistry.updatePosterior(\n            claimId,\n            posteriorPPH,\n            posteriorPPR\n        );\n\n        evidenceId = evidenceRegistry.recordEvidence(\n            claimId,\n            gps, pc, pmd, pr,\n            posteriorPPH,\n            posteriorPPR,\n            msg.sender\n        );\n\n        // --- Log ---\n\n        emit InferenceSubmitted(\n            claimId,\n            evidenceId,\n            msg.sender,\n            gps, pc, pmd, pr,\n            posteriorPPH,\n            posteriorPPR,\n            currentBnInstanceId,\n            block.number\n        );\n    }\n}\n",
  "sourcePath": "C:\\Users\\tariq\\Downloads\\ScalableBN\\contracts\\OracleController.sol",
  "compiler": {
    "name": "solc",
    "version": "0.8.17+commit.8df45f5f.Emscripten.clang"
  },
  "schemaVersion": "3.4.16",
  "updatedAt": "2026-05-27T02:43:25.490Z",
  "networkType": "ethereum",
  "devdoc": {
    "details": "Paper-aligned design invariants (Sections III-E and IV-A):         1. Single authorised entry point.            openClaim(), submitInference(), and finalizeClaim() are            the only public paths that mutate ClaimRegistry or            EvidenceRegistry.         2. submitInference() is restricted to onlyOracleOperator.            openClaim() and finalizeClaim() are intentionally open            to any caller for the current single-operator prototype,            matching the paper's description of application-initiated            claim management.  In a production deployment these            should be gated by an authorizedApp role.         3. BN snapshot consistency.            submitInference() requires the caller to supply the            expectedBnInstanceId it observed when reconstructing the            BN from CPTStore.  The contract verifies this matches            the current CPTStore.bnInstanceId(), rejecting stale            submissions and providing the stale-parameter mitigation            described in the paper's threat model (Section III-B).         4. Gas independence from BN size.            No on-chain function traverses CPT entries or performs            probabilistic arithmetic.  submitInference() performs a            fixed number of SSTORE and LOG operations regardless of            BN size, satisfying the O(1) per-query gas claim.         5. Trusted-contract reentrancy.            submitInference() calls two external contracts            (claimRegistry then evidenceRegistry).  Both are            deployed by the same owner with no ETH transfers and no            callbacks into OracleController; the Checks-Effects-            Interactions pattern is satisfied (all checks precede            both calls, and neither callee can re-enter a state-            modifying path).  A ReentrancyGuard is therefore not            required, but this is explicitly documented here.         6. Immutable contract references.            claimRegistry, evidenceRegistry, and cptStore are set            in the constructor and declared immutable, preventing            post-deployment substitution attacks.",
    "kind": "dev",
    "methods": {
      "constructor": {
        "details": "A SCALE consistency check ensures CPTStore and         ClaimRegistry share the same fixed-point base, preventing         silent precision mismatches between contracts.",
        "params": {
          "claimRegistry_": "Address of the deployed ClaimRegistry.",
          "cptStore_": "Address of the deployed CPTStore.",
          "evidenceRegistry_": "Address of the deployed EvidenceRegistry.",
          "oracleOperator_": "Initial oracle operator address."
        }
      },
      "finalizeClaim(uint256)": {
        "details": "Permitted callers:           - the address that originally opened the claim,           - the oracle operator,           - the contract owner.         This matches the paper's description of an         'application-defined completion condition' while also         allowing the oracle to finalize if the application         does not.",
        "params": {
          "claimId": "Internal claim identifier."
        }
      },
      "openClaim(bytes32)": {
        "details": "Any address may call this in the current single-operator         prototype.  The caller's address is recorded in         claimOpener so they can later finalize their own claim.         externalKey uniqueness is enforced by ClaimRegistry.",
        "params": {
          "externalKey": "keccak256(visit metadata).  Must be unique."
        },
        "returns": {
          "claimId": "     Newly allocated on-chain claim identifier."
        }
      },
      "openOrResolveClaim(bytes32)": {
        "details": "Idempotent helper that prevents duplicate-open errors         in workflows where open and submit may be called in the         same pipeline step.",
        "params": {
          "externalKey": "keccak256(visit metadata)."
        },
        "returns": {
          "claimId": "     Existing or newly allocated claim identifier.",
          "created": "     True iff a new claim was created."
        }
      },
      "setOracleOperator(address)": {
        "params": {
          "newOperator": "Must be non-zero."
        }
      },
      "submitInference(uint256,uint8,uint8,uint8,uint8,uint256,uint256,bytes32)": {
        "details": "Execution path (all O(1) in BN size):           1. Validate evidence bits and posterior bounds.           2. Verify BN snapshot has not changed since off-chain              reconstruction (stale-parameter mitigation).           3. Update latest posterior in ClaimRegistry (SSTORE).           4. Append immutable record to EvidenceRegistry (SSTORE + LOG).           5. Emit InferenceSubmitted event.         No CPT entries are read or traversed on-chain.         Per-query gas is therefore independent of BN size.         Reentrancy: claimRegistry and evidenceRegistry are         owner-deployed contracts with no ETH transfers and no         callbacks into OracleController.  CEI is satisfied;         a ReentrancyGuard is not required (see contract NatDoc).",
        "params": {
          "claimId": "Internal claim identifier.",
          "expectedBnInstanceId": "bnInstanceId read from CPTStore at                               off-chain BN reconstruction time.                               Submission reverts if CPTStore                               parameters changed since then.",
          "gps": "GPS evidence bit in {0, 1}.",
          "pc": "Patient confirmation bit in {0, 1}.",
          "pmd": "Physician device log bit in {0, 1}.",
          "posteriorPPH": "Scaled P(PPH=true|e) in [0, SCALE].",
          "posteriorPPR": "Scaled P(PPR=true|e) in [0, SCALE].",
          "pr": "Prescription evidence bit in {0, 1}."
        },
        "returns": {
          "evidenceId": "           Monotonic record id in EvidenceRegistry."
        }
      }
    },
    "title": "OracleController",
    "version": 1
  },
  "userdoc": {
    "events": {
      "ClaimFinalizedThroughController(uint256,address,uint256)": {
        "notice": "Emitted when a claim is finalized through this controller."
      },
      "ClaimOpenedThroughController(uint256,bytes32,address,uint256)": {
        "notice": "Emitted when a claim is opened through this controller.         opener is the msg.sender; for auditing which application         or user initiated the claim."
      },
      "InferenceSubmitted(uint256,uint256,address,uint8,uint8,uint8,uint8,uint256,uint256,bytes32,uint256)": {
        "notice": "Emitted on every successful inference submission.         claimId, evidenceId, operator are indexed (EVM 3-topic         limit); all other fields are in event data.         bnInstanceId links the posterior to the exact CPTStore         parameter snapshot used for off-chain inference."
      },
      "OracleOperatorUpdated(address,address)": {
        "notice": "Emitted when the oracle operator is updated."
      }
    },
    "kind": "user",
    "methods": {
      "claimOpener(uint256)": {
        "notice": "claimId => address that opened the claim.         Used in finalizeClaim() to allow openers to finalize         their own claims without oracle involvement."
      },
      "claimRegistry()": {
        "notice": "ClaimRegistry contract reference."
      },
      "constructor": {
        "notice": "Deploys OracleController and binds all peer contracts."
      },
      "cptStore()": {
        "notice": "CPTStore contract reference."
      },
      "evidenceRegistry()": {
        "notice": "EvidenceRegistry contract reference."
      },
      "finalizeClaim(uint256)": {
        "notice": "Finalizes a claim, preventing further posterior updates."
      },
      "openClaim(bytes32)": {
        "notice": "Opens a new claim on behalf of an application."
      },
      "openOrResolveClaim(bytes32)": {
        "notice": "Opens a claim only if no claim exists for externalKey;         otherwise returns the existing claimId."
      },
      "oracleOperator()": {
        "notice": "Address of the off-chain oracle operator.         Only this address may call submitInference()."
      },
      "owner()": {
        "notice": "Deployer; may update oracleOperator and nothing else."
      },
      "setOracleOperator(address)": {
        "notice": "Updates the oracle operator address."
      },
      "submitInference(uint256,uint8,uint8,uint8,uint8,uint256,uint256,bytes32)": {
        "notice": "Submits a BN inference result for an open claim."
      }
    },
    "notice": "Sole on-chain entry point for all LUNA claim and inference         operations.  ClaimRegistry and EvidenceRegistry accept writes         only from this contract.",
    "version": 1
  }
}